{
  "_format": "hh-sol-artifact-1",
  "contractName": "ZirconPylonFactory",
  "sourceName": "contracts/core/ZirconPylonFactory.sol",
  "abi": [
    {
      "inputs": [
        {
          "internalType": "address",
          "name": "_factory",
          "type": "address"
        }
      ],
      "payable": false,
      "stateMutability": "nonpayable",
      "type": "constructor"
    },
    {
      "anonymous": false,
      "inputs": [
        {
          "indexed": true,
          "internalType": "address",
          "name": "token0",
          "type": "address"
        },
        {
          "indexed": false,
          "internalType": "address",
          "name": "poolToken",
          "type": "address"
        }
      ],
      "name": "PoolTokenCreated",
      "type": "event"
    },
    {
      "anonymous": false,
      "inputs": [
        {
          "indexed": true,
          "internalType": "address",
          "name": "token0",
          "type": "address"
        },
        {
          "indexed": true,
          "internalType": "address",
          "name": "token1",
          "type": "address"
        },
        {
          "indexed": false,
          "internalType": "address",
          "name": "pair",
          "type": "address"
        }
      ],
      "name": "PylonCreated",
      "type": "event"
    },
    {
      "constant": false,
      "inputs": [
        {
          "internalType": "address",
          "name": "_pairAddress",
          "type": "address"
        },
        {
          "internalType": "address",
          "name": "_tokenA",
          "type": "address"
        },
        {
          "internalType": "address",
          "name": "_tokenB",
          "type": "address"
        }
      ],
      "name": "addPylon",
      "outputs": [
        {
          "internalType": "address",
          "name": "pylonAddress",
          "type": "address"
        }
      ],
      "payable": false,
      "stateMutability": "nonpayable",
      "type": "function"
    },
    {
      "constant": true,
      "inputs": [
        {
          "internalType": "uint256",
          "name": "",
          "type": "uint256"
        }
      ],
      "name": "allPylons",
      "outputs": [
        {
          "internalType": "address",
          "name": "",
          "type": "address"
        }
      ],
      "payable": false,
      "stateMutability": "view",
      "type": "function"
    },
    {
      "constant": true,
      "inputs": [],
      "name": "allPylonsLength",
      "outputs": [
        {
          "internalType": "uint256",
          "name": "",
          "type": "uint256"
        }
      ],
      "payable": false,
      "stateMutability": "view",
      "type": "function"
    },
    {
      "constant": true,
      "inputs": [],
      "name": "dynamicFeePercentage",
      "outputs": [
        {
          "internalType": "uint256",
          "name": "",
          "type": "uint256"
        }
      ],
      "payable": false,
      "stateMutability": "view",
      "type": "function"
    },
    {
      "constant": true,
      "inputs": [],
      "name": "factory",
      "outputs": [
        {
          "internalType": "address",
          "name": "",
          "type": "address"
        }
      ],
      "payable": false,
      "stateMutability": "view",
      "type": "function"
    },
    {
      "constant": true,
      "inputs": [
        {
          "internalType": "address",
          "name": "",
          "type": "address"
        },
        {
          "internalType": "address",
          "name": "",
          "type": "address"
        }
      ],
      "name": "getPylon",
      "outputs": [
        {
          "internalType": "address",
          "name": "",
          "type": "address"
        }
      ],
      "payable": false,
      "stateMutability": "view",
      "type": "function"
    },
    {
      "constant": true,
      "inputs": [],
      "name": "maximumPercentageSync",
      "outputs": [
        {
          "internalType": "uint256",
          "name": "",
          "type": "uint256"
        }
      ],
      "payable": false,
      "stateMutability": "view",
      "type": "function"
    },
    {
      "constant": true,
      "inputs": [],
      "name": "pairCodeHash",
      "outputs": [
        {
          "internalType": "bytes32",
          "name": "",
          "type": "bytes32"
        }
      ],
      "payable": false,
      "stateMutability": "pure",
      "type": "function"
    }
  ],
  "bytecode": "0x608060405234801561001057600080fd5b506040516157963803806157968339818101604052602081101561003357600080fd5b5051600280546001600160a01b0319166001600160a01b03909216919091179055600a60035560056004556157298061006d6000396000f3fe608060405234801561001057600080fd5b50600436106100885760003560e01c80639aab92481161005b5780639aab924814610131578063a3ad52b814610139578063afc3743f14610141578063c45a01551461015e57610088565b80630e0f29731461008d5780636c0fb018146100d757806379186af0146100f157806379281abe146100f9575b600080fd5b6100bb600480360360408110156100a357600080fd5b506001600160a01b0381358116916020013516610166565b604080516001600160a01b039092168252519081900360200190f35b6100df610189565b60408051918252519081900360200190f35b6100df61018f565b6100bb6004803603606081101561010f57600080fd5b506001600160a01b038135811691602081013582169160409091013516610195565b6100df610594565b6100df6105c6565b6100bb6004803603602081101561015757600080fd5b50356105cc565b6100bb6105f3565b60006020818152928152604080822090935290815220546001600160a01b031681565b60015490565b60045481565b6000816001600160a01b0316836001600160a01b031614156101fe576040805162461bcd60e51b815260206004820152601760248201527f5a463a204944454e544943414c5f414444524553534553000000000000000000604482015290519081900360640190fd5b6001600160a01b0383811660009081526020818152604080832086851684529091529020541615610276576040805162461bcd60e51b815260206004820152601060248201527f5a463a2050594c4f4e5f45584953545300000000000000000000000000000000604482015290519081900360640190fd5b610281838386610602565b9050600061028f8483610691565b9050600061029d8484610691565b600254604080517fcc2a9a5b0000000000000000000000000000000000000000000000000000000081526001600160a01b0386811660048301528085166024830152898116604483015288811660648301528a8116608483015292831660a482015290519293509085169163cc2a9a5b9160c48082019260009290919082900301818387803b15801561032f57600080fd5b505af1158015610343573d6000803e3d6000fd5b5050604080516001600160a01b0387811682529151828916945091891692507fe5708536132333cfc9aace952614f6d4c6dea711c37ffe874a20cea745adbeb6919081900360200190a360408051633fb3e5cd60e21b81526001600160a01b038781166004830152888116602483015285811660448301526001606483015291519184169163fecf97349160848082019260009290919082900301818387803b1580156103ef57600080fd5b505af1158015610403573d6000803e3d6000fd5b5050604080516001600160a01b038681168252915191891693507fb734785e2fac0d09f3e4d4c0240bc9009e97a639cc8b5bbec49dfb40b18de384925081900360200190a260408051633fb3e5cd60e21b81526001600160a01b0386811660048301528881166024830152858116604483015260006064830181905292519084169263fecf9734926084808201939182900301818387803b1580156104a757600080fd5b505af11580156104bb573d6000803e3d6000fd5b5050604080516001600160a01b038581168252915191881693507fb734785e2fac0d09f3e4d4c0240bc9009e97a639cc8b5bbec49dfb40b18de384925081900360200190a250506001600160a01b03928316600090815260208181526040808320948616835293905291822080549382167fffffffffffffffffffffffff0000000000000000000000000000000000000000948516811790915560018054808201825593527fb10e2d527612073b26eecdfd717e6a320cf44b4afac2b0732d9fcbe2b7fa0cf69092018054909316909117909155919050565b6000604051806020016105a69061072b565b6020820181038252601f19601f8201166040525080519060200120905090565b60035481565b600181815481106105d957fe5b6000918252602090912001546001600160a01b0316905081565b6002546001600160a01b031681565b60006060604051806020016106169061072b565b601f1982820381018352601f9091011660408181526bffffffffffffffffffffffff19606089811b821660208581019190915289821b831660348601529088901b90911660488401528151603c818503018152605c909301909152815191810191909120825192935091829184016000f59695505050505050565b60006060604051806020016106a590610738565b6020820181038252601f19601f8201166040525090506000848460405160200180836001600160a01b03166001600160a01b031660601b8152601401826001600160a01b03166001600160a01b031660601b815260140192505050604051602081830303815290604052805190602001209050808251602084016000f595945050505050565b6140008061074683390190565b610faf806147468339019056fe60806040526000600f55662386f26fc10000601055600160115534801561002557600080fd5b50600180546001600160a01b03191633179055613fb9806100476000396000f3fe608060405234801561001057600080fd5b50600436106101985760003560e01c8063a3ad52b8116100e3578063c45a01551161008c578063e14f870d11610066578063e14f870d146103fc578063e845d4e514610404578063f29401c41461040c57610198565b8063c45a01551461035d578063c561cf4f14610365578063cc2a9a5b146103ac57610198565b8063b59d80ca116100bd578063b59d80ca1461031f578063ba7b3dea14610327578063ba9a7a561461035557610198565b8063a3ad52b8146102e1578063a8b08982146102e9578063ac9370f3146102f157610198565b806379186af0116101455780638ffa32361161011f5780638ffa3236146102b557806397ed64db146102d15780639ab9f341146102d957610198565b806379186af01461027757806387d9b8531461027f5780638d470e221461028757610198565b806333cdde4e1161017657806333cdde4e146101f7578063402d82c1146102255780636f599f9d1461025357610198565b80630a22d5f31461019d578063158ef93e146101d5578063192b65d8146101ef575b600080fd5b6101a5610432565b604080516001600160701b03948516815292909316602083015263ffffffff168183015290519081900360600190f35b6101dd610475565b60408051918252519081900360200190f35b6101dd61047b565b6101dd6004803603604081101561020d57600080fd5b506001600160a01b0381351690602001351515610481565b61022d61094f565b604080516001600160a01b03938416815291909216602082015281519081900390910190f35b61025b610965565b604080516001600160a01b039092168252519081900360200190f35b6101dd610974565b6101dd61097a565b6101dd6004803603604081101561029d57600080fd5b506001600160a01b0381351690602001351515610980565b6102bd610b52565b604080519115158252519081900360200190f35b6101dd610b5b565b6101dd610b61565b6101dd610b67565b61025b610b6d565b6101dd6004803603604081101561030757600080fd5b506001600160a01b0381351690602001351515610b81565b61025b610f86565b6101dd6004803603604081101561033d57600080fd5b506001600160a01b0381351690602001351515610f95565b6101dd611685565b61025b61168b565b6103936004803603604081101561037b57600080fd5b506001600160a01b038135169060200135151561169a565b6040805192835260208301919091528051918290030190f35b6103fa600480360360c08110156103c257600080fd5b506001600160a01b038135811691602081013582169160408201358116916060810135821691608082013581169160a0013516611bcf565b005b61025b611ea4565b6101dd611eb3565b6103fa6004803603602081101561042257600080fd5b50356001600160a01b0316611eb9565b600e546001600160701b0380821692600160701b8304909116917c0100000000000000000000000000000000000000000000000000000000900463ffffffff1690565b600f5481565b60075481565b60006011546001146104c7576040805162461bcd60e51b815260206004820152600a60248201526916940e881313d0d2d15160b21b604482015290519081900360640190fd5b6000601155600f54600114610523576040805162461bcd60e51b815260206004820152601360248201527f5a503a204e4f5420494e495449414c495a454400000000000000000000000000604482015290519081900360640190fd5b61052b6121c2565b600254604080517f017e7e5800000000000000000000000000000000000000000000000000000000815290516000926001600160a01b03169163017e7e58916004808301926020929190829003018186803b15801561058957600080fd5b505afa15801561059d573d6000803e3d6000fd5b505050506040513d60208110156105b357600080fd5b505190506000836105cf576003546001600160a01b03166105dc565b6004546001600160a01b03165b90506000806105e9610432565b50600554604080516370a0823160e01b81523060048201529051939550919350600092839283926001600160a01b0316916370a0823191602480820192602092909190829003018186803b15801561064057600080fd5b505afa158015610654573d6000803e3d6000fd5b505050506040513d602081101561066a57600080fd5b5051600654604080516370a0823160e01b815230600482015290519293506000926001600160a01b03909216916370a0823191602480820192602092909190829003018186803b1580156106bd57600080fd5b505afa1580156106d1573d6000803e3d6000fd5b505050506040513d60208110156106e757600080fd5b50519050610704826001600160701b03881663ffffffff61255f16565b935061071f816001600160701b03871663ffffffff61255f16565b925061072d84848c8a6125bd565b985050506000811180156107415750600082115b61077c5760405162461bcd60e51b8152600401808060200182810382526021815260200180613ef06021913960400191505060405180910390fd5b60055460005461079e916001600160a01b0390811691610100900416846127cf565b6006546000546107c0916001600160a01b0390811691610100900416836127cf565b60008054604080516335313c2160e11b815230600482015290516101009092046001600160a01b031691636a6278429160248082019260209290919082900301818787803b15801561081157600080fd5b505af1158015610825573d6000803e3d6000fd5b505050506040513d602081101561083b57600080fd5b5051600a5490915060009060649061085a908b9063ffffffff61299016565b8161086157fe5b04905061086e81886129fc565b156108795780890398505b866001600160a01b03166340c10f198c8b6040518363ffffffff1660e01b815260040180836001600160a01b03166001600160a01b0316815260200182815260200192505050600060405180830381600087803b1580156108d957600080fd5b505af11580156108ed573d6000803e3d6000fd5b5050604080513381526020810188905280820187905290517f9a36e9f82fd3ab4ec26a87598c0f7f4519b7895fa6a0bca1968b486ee019b08294509081900360600192509050a161093c612b0f565b5050600160115550939695505050505050565b6005546006546001600160a01b03918216911682565b6004546001600160a01b031681565b600a5481565b600c5481565b6000600f546001146109d9576040805162461bcd60e51b815260206004820152601360248201527f5a503a204e4f5420494e495449414c495a454400000000000000000000000000604482015290519081900360640190fd5b6109e16121c2565b6000806109ec610432565b50915091506000806109fc612bf3565b915091508515610aa557600654604080516370a0823160e01b815230600482015290516000926001600160a01b0316916370a08231916024808301926020929190829003018186803b158015610a5157600080fd5b505afa158015610a65573d6000803e3d6000fd5b505050506040513d6020811015610a7b57600080fd5b5051600454909150610a9d908290869085906001600160a01b03168c8c612cae565b955050610b40565b600554604080516370a0823160e01b815230600482015290516000926001600160a01b0316916370a08231916024808301926020929190829003018186803b158015610af057600080fd5b505afa158015610b04573d6000803e3d6000fd5b505050506040513d6020811015610b1a57600080fd5b5051600354909150610b3c908290879086906001600160a01b03168c8c612cae565b9550505b610b48612f65565b5050505092915050565b60005460ff1681565b600b5481565b60085481565b60095481565b60005461010090046001600160a01b031681565b6000600f54600114610bda576040805162461bcd60e51b815260206004820152601360248201527f5a503a204e4f5420494e495449414c495a454400000000000000000000000000604482015290519081900360640190fd5b610be26121c2565b600080610bed610432565b509150915060008415610c9457600654604080516370a0823160e01b815230600482015290516000926001600160a01b0316916370a08231916024808301926020929190829003018186803b158015610c4557600080fd5b505afa158015610c59573d6000803e3d6000fd5b505050506040513d6020811015610c6f57600080fd5b50519050610c8c816001600160701b03851663ffffffff61255f16565b915050610d2a565b600554604080516370a0823160e01b815230600482015290516000926001600160a01b0316916370a08231916024808301926020929190829003018186803b158015610cdf57600080fd5b505afa158015610cf3573d6000803e3d6000fd5b505050506040513d6020811015610d0957600080fd5b50519050610d26816001600160701b03861663ffffffff61255f16565b9150505b60008111610d7f576040805162461bcd60e51b815260206004820152601760248201527f5a503a20494e53554646494349454e545f414d4f554e54000000000000000000604482015290519081900360640190fd5b610dbc85610d98576005546001600160a01b0316610da5565b6006546001600160a01b03165b60005461010090046001600160a01b0316836127cf565b6000805460ff16610dcd5785610dd0565b85155b9050600080610ddf8489613304565b91509150610e1182828a8b610dff576003546001600160a01b0316610e0c565b6004546001600160a01b03165b6125bd565b60008054604080516321913af360e11b815230600482015287151560248201529051939a5091926101009091046001600160a01b03169163432275e691604480830192606092919082900301818787803b158015610e6e57600080fd5b505af1158015610e82573d6000803e3d6000fd5b505050506040513d6060811015610e9857600080fd5b5051905088610eb2576003546001600160a01b0316610ebf565b6004546001600160a01b03165b6001600160a01b03166340c10f198b8a6040518363ffffffff1660e01b815260040180836001600160a01b03166001600160a01b0316815260200182815260200192505050600060405180830381600087803b158015610f1e57600080fd5b505af1158015610f32573d6000803e3d6000fd5b50505050505050610f41612b0f565b604080513381526020810184905281517f9f86f97a982e0ecb5feca735a22a513c3cec88fbd4bac2011d1e37994c5e435b929181900390910190a15050505092915050565b6003546001600160a01b031681565b6000601154600114610fdb576040805162461bcd60e51b815260206004820152600a60248201526916940e881313d0d2d15160b21b604482015290519081900360640190fd5b6000601155610fe86121c2565b600082611000576003546001600160a01b031661100d565b6004546001600160a01b03165b604080516370a0823160e01b815230600482015290519192506000916001600160a01b038416916370a08231916024808301926020929190829003018186803b15801561105957600080fd5b505afa15801561106d573d6000803e3d6000fd5b505050506040513d602081101561108357600080fd5b50519050806110d9576040805162461bcd60e51b815260206004820152601660248201527f494e53554646494349454e545f4c495155494449545900000000000000000000604482015290519081900360640190fd5b6000826001600160a01b03166318160ddd6040518163ffffffff1660e01b815260040160206040518083038186803b15801561111457600080fd5b505afa158015611128573d6000803e3d6000fd5b505050506040513d602081101561113e57600080fd5b5051604080516318160ddd60e01b815290519192506000916001600160a01b038616916318160ddd916004808301926020929190829003018186803b15801561118657600080fd5b505afa15801561119a573d6000803e3d6000fd5b505050506040513d60208110156111b057600080fd5b5051905086866111be613eb7565b50604080518082019091526005546001600160a01b0390811682526006548116602083015260008054610100900490911690806111fc85888b613382565b9150915061121c8561120f578451611215565b84602001515b87836127cf565b809a508882101561138a57670de0b6b3a76400008515611293576000611240610432565b506001600160701b03169150506000611257612bf3565b6001600160701b0316915061128e905061128261127b83600263ffffffff61299016565b6000613440565b83600b54600754613570565b925050505b6000670de0b6b3a76400006112be836112b28e8863ffffffff61255f16565b9063ffffffff61299016565b816112c557fe5b0490506112dd85866112d88a858e6135ae565b6127cf565b6000546001600160a01b03861690632ce51090908a9060ff166113005789611303565b89155b6040518363ffffffff1660e01b815260040180836001600160a01b03166001600160a01b031681526020018215151515815260200192505050602060405180830381600087803b15801561135657600080fd5b505af115801561136a573d6000803e3d6000fd5b505050506040513d602081101561138057600080fd5b50519c909c019b50505b60408051632770a7eb60e21b8152306004820152602481018b905290516001600160a01b038c1691639dc29fac91604480830192600092919082900301818387803b1580156113d857600080fd5b505af11580156113ec573d6000803e3d6000fd5b5050505050505050505050841561142b576007548190611412908463ffffffff61299016565b8161141957fe5b60078054929091049091039055611455565b6008548190611440908463ffffffff61299016565b8161144757fe5b600880549290910490910390555b61145d612b0f565b611465613eb7565b506040805180820182526005546001600160a01b0390811680835260065490911660208084019190915283516370a0823160e01b8152306004820152935192936000936370a0823192602480840193919291829003018186803b1580156114cb57600080fd5b505afa1580156114df573d6000803e3d6000fd5b505050506040513d60208110156114f557600080fd5b5051602083810151604080516370a0823160e01b815230600482015290519394506000936001600160a01b03909216926370a0823192602480840193829003018186803b15801561154557600080fd5b505afa158015611559573d6000803e3d6000fd5b505050506040513d602081101561156f57600080fd5b5051905060008061157e612bf3565b6001600160701b031691506001600160701b031691506000826000146115bd5760646115b06009546112b28689613440565b816115b757fe5b046115dd565b60646115d46009548761299090919063ffffffff16565b816115db57fe5b045b9050600082156116065760646115f96009546112b28689613440565b8161160057fe5b04611626565b606461161d6009548761299090919063ffffffff16565b8161162457fe5b045b905061163486868484613841565b505060408051338152602081018b905281517fcc16f5dbb4873280815c1ee09dbd06736cffcc184412cf7a71a0fdb75d397ca5975090819003909101945092505050a1505060016011555092915050565b6103e881565b6001546001600160a01b031681565b6000806011546001146116e1576040805162461bcd60e51b815260206004820152600a60248201526916940e881313d0d2d15160b21b604482015290519081900360640190fd5b60006011556116ee6121c2565b600083611706576003546001600160a01b0316611713565b6004546001600160a01b03165b604080516370a0823160e01b815230600482015290519192506000916001600160a01b038416916370a08231916024808301926020929190829003018186803b15801561175f57600080fd5b505afa158015611773573d6000803e3d6000fd5b505050506040513d602081101561178957600080fd5b5051604080516318160ddd60e01b815290519192506000916001600160a01b038516916318160ddd916004808301926020929190829003018186803b1580156117d157600080fd5b505afa1580156117e5573d6000803e3d6000fd5b505050506040513d60208110156117fb57600080fd5b505190508161183b5760405162461bcd60e51b8152600401808060200182810382526021815260200180613ecf6021913960400191505060405180910390fd5b670de0b6b3a764000060008061184f610432565b506001600160701b031691506001600160701b03169150600080611871612bf3565b6001600160701b031691506001600160701b0316915060008b6118e8576118c985670de0b6b3a76400006118b5600b546112b260028961299090919063ffffffff16565b816118bc57fe5b049063ffffffff613b0416565b6118d9888763ffffffff61299016565b816118e057fe5b048703611906565b6007546118fb888663ffffffff61299016565b8161190257fe5b0487035b905080881061195c576040805162461bcd60e51b815260206004820152601d60248201527f5a503a204578636565646564204275726e204173796e63206c696d6974000000604482015290519081900360640190fd5b508a156119895761198661197a61127b83600263ffffffff61299016565b84600b54600754613570565b94505b505050506000670de0b6b3a76400006119ab838661299090919063ffffffff16565b816119b257fe5b04905060006119c28983866135ae565b6000549091506119e19061010090046001600160a01b031680836127cf565b60008054604080517f89afcb440000000000000000000000000000000000000000000000000000000081526001600160a01b038e81166004830152825185946101009004909116926389afcb44926024808201939182900301818787803b158015611a4b57600080fd5b505af1158015611a5f573d6000803e3d6000fd5b505050506040513d6040811015611a7557600080fd5b508051602090910151600054919350915060ff16611a935780611a95565b815b600054909a5060ff16611aa85781611aaa565b805b98508a15611ae0576007548690611ac7908963ffffffff61299016565b81611ace57fe5b60078054929091049091039055611b0a565b6008548690611af5908963ffffffff61299016565b81611afc57fe5b600880549290910490910390555b60408051632770a7eb60e21b81523060048201526024810189905290516001600160a01b038a1691639dc29fac91604480830192600092919082900301818387803b158015611b5857600080fd5b505af1158015611b6c573d6000803e3d6000fd5b50505050611b78612b0f565b60408051338152602081018c90528082018b905290517fb83dbb1f0386f1b6d6f534f325d617e3f96f2971cca29021702094328c1cb70c9181900360600190a1505050505050505060016011819055509250929050565b6001546001600160a01b03163314611c2e576040805162461bcd60e51b815260206004820152601160248201527f5a6972636f6e3a20464f5242494444454e000000000000000000000000000000604482015290519081900360640190fd5b600380546001600160a01b0380891673ffffffffffffffffffffffffffffffffffffffff19928316179092556004805488841692169190911781556000805485841661010081027fffffffffffffffffffffff0000000000000000000000000000000000000000ff90921691909117909155604080517f0dfe16810000000000000000000000000000000000000000000000000000000081529051938816939192630dfe1681928282019260209290829003018186803b158015611cf157600080fd5b505afa158015611d05573d6000803e3d6000fd5b505050506040513d6020811015611d1b57600080fd5b50516000805460ff19166001600160a01b03928316939093149290921790915560408051808201825286831680825286841660209283018190526005805473ffffffffffffffffffffffffffffffffffffffff199081169093179055600680548316909117905560028054868616921691909117905560015482517fa3ad52b8000000000000000000000000000000000000000000000000000000008152925193169263a3ad52b8926004818101939291829003018186803b158015611de057600080fd5b505afa158015611df4573d6000803e3d6000fd5b505050506040513d6020811015611e0a57600080fd5b5051600955600154604080517f79186af000000000000000000000000000000000000000000000000000000000815290516001600160a01b03909216916379186af091600480820192602092909190829003018186803b158015611e6d57600080fd5b505afa158015611e81573d6000803e3d6000fd5b505050506040513d6020811015611e9757600080fd5b5051600a55505050505050565b6002546001600160a01b031681565b600d5481565b601154600114611efd576040805162461bcd60e51b815260206004820152600a60248201526916940e881313d0d2d15160b21b604482015290519081900360640190fd5b6000601155600f5415611f57576040805162461bcd60e51b815260206004820152601360248201527f416c726561647920496e697469616c697a656400000000000000000000000000604482015290519081900360640190fd5b600554604080516370a0823160e01b815230600482015290516000926001600160a01b0316916370a08231916024808301926020929190829003018186803b158015611fa257600080fd5b505afa158015611fb6573d6000803e3d6000fd5b505050506040513d6020811015611fcc57600080fd5b5051600654604080516370a0823160e01b815230600482015290519293506000926001600160a01b03909216916370a0823191602480820192602092909190829003018186803b15801561201f57600080fd5b505afa158015612033573d6000803e3d6000fd5b505050506040513d602081101561204957600080fd5b50519050811580159061205c5750600081115b6120ad576040805162461bcd60e51b815260206004820152601860248201527f5a503a204e6f7420656e6f756768206c69717569646974790000000000000000604482015290519081900360640190fd5b6000806120b8612bf3565b60088690556007859055909250905060006001600160701b038316158015906120ea57506000826001600160701b0316115b1561211e576007546001600160701b038084169161210f91861663ffffffff61299016565b8161211657fe5b04905061213e565b6007548490612133908763ffffffff61299016565b8161213a57fe5b0490505b600854612151908263ffffffff613b0416565b600854670de0b6b3a7640000028161216557fe5b04600b5560045461218890859060009085906001600160a01b03168a6001612cae565b506003546121a790869060009086906001600160a01b03168a83612cae565b506121b0612f65565b50506001600f81905560115550505050565b60005461010090046001600160a01b0316331461224257600060019054906101000a90046001600160a01b03166001600160a01b03166311816b046040518163ffffffff1660e01b8152600401600060405180830381600087803b15801561222957600080fd5b505af115801561223d573d6000803e3d6000fd5b505050505b60008061224d612bf3565b9150915060008061225c610432565b50909250905060006122806001600160701b0386811690861663ffffffff61299016565b9050600d5460001415801561229d57506001600160701b03851615155b80156122b157506001600160701b03841615155b156125585760008060019054906101000a90046001600160a01b03166001600160a01b03166318160ddd6040518163ffffffff1660e01b815260040160206040518083038186803b15801561230557600080fd5b505afa158015612319573d6000803e3d6000fd5b505050506040513d602081101561232f57600080fd5b50519050600061235261127b6001600160701b038816600263ffffffff61299016565b9050600061237361127b6001600160701b038a16600263ffffffff61299016565b90506000670de0b6b3a7640000905060006123c1600d5461239388613b5c565b02866123a0600c54613b5c565b02670de0b6b3a764000002816123b257fe5b8491900463ffffffff61255f16565b90506000670de0b6b3a76400006123de868463ffffffff61299016565b816123e557fe5b0490506000670de0b6b3a7640000612403868563ffffffff61299016565b8161240a57fe5b049050670de0b6b3a764000061242b600b548461299090919063ffffffff16565b8161243257fe5b60078054929091049091019055600b54670de0b6b3a76400009061245890820383612990565b8161245f57fe5b60088054929091049091019055600754600287049061248d906001600160701b038c1663ffffffff61255f16565b10156124d55760075486906124b1906001600160701b038c1663ffffffff61255f16565b670de0b6b3a764000002816124c257fe5b04670de0b6b3a764000003600b55612509565b60085485906124f3906001600160701b038d1663ffffffff61255f16565b670de0b6b3a7640000028161250457fe5b04600b555b600754600854600b5460408051938452602084019290925282820152517f54964c70825f65946c2e16cd62d98784e0536cf3d54b15ce1845f37f325945d29181900360600190a1505050505050505b5050505050565b808203828111156125b7576040805162461bcd60e51b815260206004820152601560248201527f64732d6d6174682d7375622d756e646572666c6f770000000000000000000000604482015290519081900360640190fd5b92915050565b60008060006125ca612bf3565b915091506000806125d9610432565b509150915086156126d8576000612632856001600160701b031661261460026112b2886001600160701b03168f61299090919063ffffffff16565b8161261b57fe5b0461262d8b600263ffffffff61299016565b613bae565b90506126c78882896001600160a01b03166318160ddd6040518163ffffffff1660e01b815260040160206040518083038186803b15801561267257600080fd5b505afa158015612686573d6000803e3d6000fd5b505050506040513d602081101561269c57600080fd5b50516126b26001600160701b0389166000613440565b866001600160701b0316600b54600754613bc6565b6007805490920190915594506127c3565b6000612721846001600160701b031661270860026112b2896001600160701b03168e61299090919063ffffffff16565b8161270f57fe5b0461262d8c600263ffffffff61299016565b90506127b68882896001600160a01b03166318160ddd6040518163ffffffff1660e01b815260040160206040518083038186803b15801561276157600080fd5b505afa158015612775573d6000803e3d6000fd5b505050506040513d602081101561278b57600080fd5b50516127a16001600160701b038a166000613440565b876001600160701b0316600b54600754613bc6565b6008805490920190915594505b50505050949350505050565b604080518082018252601981527f7472616e7366657228616464726573732c75696e74323536290000000000000060209182015281516001600160a01b0385811660248301526044808301869052845180840390910181526064909201845291810180517bffffffffffffffffffffffffffffffffffffffffffffffffffffffff167fa9059cbb000000000000000000000000000000000000000000000000000000001781529251815160009460609489169392918291908083835b602083106128aa5780518252601f19909201916020918201910161288b565b6001836020036101000a0380198251168184511680821785525050505050509050019150506000604051808303816000865af19150503d806000811461290c576040519150601f19603f3d011682016040523d82523d6000602084013e612911565b606091505b509150915081801561293f57508051158061293f575080806020019051602081101561293c57600080fd5b50515b612558576040805162461bcd60e51b815260206004820152601d60248201527f5a6972636f6e2050796c6f6e3a205452414e534645525f4641494c4544000000604482015290519081900360640190fd5b60008115806129ab575050808202828282816129a857fe5b04145b6125b7576040805162461bcd60e51b815260206004820152601460248201527f64732d6d6174682d6d756c2d6f766572666c6f77000000000000000000000000604482015290519081900360640190fd5b600080600260009054906101000a90046001600160a01b03166001600160a01b031663017e7e586040518163ffffffff1660e01b815260040160206040518083038186803b158015612a4d57600080fd5b505afa158015612a61573d6000803e3d6000fd5b505050506040513d6020811015612a7757600080fd5b50516001600160a01b0381161580159350909150612b0857826001600160a01b03166340c10f1982866040518363ffffffff1660e01b815260040180836001600160a01b03166001600160a01b0316815260200182815260200192505050600060405180830381600087803b158015612aef57600080fd5b505af1158015612b03573d6000803e3d6000fd5b505050505b5092915050565b600080612b1a612bf3565b9150915060006401000000004281612b2e57fe5b06905080600e601c6101000a81548163ffffffff021916908363ffffffff160217905550600060019054906101000a90046001600160a01b03166001600160a01b03166318160ddd6040518163ffffffff1660e01b815260040160206040518083038186803b158015612ba057600080fd5b505afa158015612bb4573d6000803e3d6000fd5b505050506040513d6020811015612bca57600080fd5b5051600d55612beb6001600160701b0384811690841663ffffffff61299016565b600c55505050565b600080600080600060019054906101000a90046001600160a01b03166001600160a01b0316630902f1ac6040518163ffffffff1660e01b815260040160606040518083038186803b158015612c4757600080fd5b505afa158015612c5b573d6000803e3d6000fd5b505050506040513d6060811015612c7157600080fd5b508051602090910151600054919350915060ff16612c8f5780612c91565b815b60005490945060ff16612ca45781612ca6565b805b925050509091565b600080612cca886001600160701b03891663ffffffff61255f16565b905060008111612d21576040805162461bcd60e51b815260206004820152601860248201527f5a503a204e6f7420456e6f756768204c69717569646974790000000000000000604482015290519081900360640190fd5b6000856001600160a01b03166318160ddd6040518163ffffffff1660e01b815260040160206040518083038186803b158015612d5c57600080fd5b505afa158015612d70573d6000803e3d6000fd5b505050506040513d6020811015612d8657600080fd5b505190506001600160701b038089169088166000612da48282613440565b600b546007549192509085612e3357604080517f40c10f190000000000000000000000000000000000000000000000000000000081526000600482018190526103e8602483015291516001600160a01b038e16926340c10f19926044808201939182900301818387803b158015612e1a57600080fd5b505af1158015612e2e573d6000803e3d6000fd5b505050505b612e4289888886898787613bc6565b9750505050505080600014612e6d578315612e64576007805483019055612e6d565b60088054830190555b60006064612e86600a548661299090919063ffffffff16565b81612e8d57fe5b049050612e9a81886129fc565b15612ea55780840393505b866001600160a01b03166340c10f1987866040518363ffffffff1660e01b815260040180836001600160a01b03166001600160a01b0316815260200182815260200192505050600060405180830381600087803b158015612f0557600080fd5b505af1158015612f19573d6000803e3d6000fd5b5050604080513381526020810187905281517f55dc8382f156a78fd3327279c3abe1bc01ecaeb76e18952613611eabe0df97279450908190039091019150a15050509695505050505050565b600554604080516370a0823160e01b815230600482015290516000926001600160a01b0316916370a08231916024808301926020929190829003018186803b158015612fb057600080fd5b505afa158015612fc4573d6000803e3d6000fd5b505050506040513d6020811015612fda57600080fd5b5051600654604080516370a0823160e01b815230600482015290519293506000926001600160a01b03909216916370a0823191602480820192602092909190829003018186803b15801561302d57600080fd5b505afa158015613041573d6000803e3d6000fd5b505050506040513d602081101561305757600080fd5b50519050600080613066612bf3565b91509150600061307f836001600160701b031686613440565b90506000613096836001600160701b031686613440565b905060006001600160701b038516156130cd5760646130c06009548561299090919063ffffffff16565b816130c757fe5b046130ed565b60646130e46009548961299090919063ffffffff16565b816130eb57fe5b045b905060006001600160701b038516156131245760646131176009548561299090919063ffffffff16565b8161311e57fe5b04613144565b606461313b6009548961299090919063ffffffff16565b8161314257fe5b045b905060026001600160701b038316046001600160701b03168811801561317e575060026001600160701b038216046001600160701b031687115b156132e65760008061320a6001600160701b038916156131a757886001600160701b03166131a9565b8a5b6001600160701b038916156131c757886001600160701b03166131c9565b8a5b6131f160026001600160701b0389165b8f916001600160701b0391041663ffffffff61255f16565b61320560026001600160701b0389166131d9565b613d0b565b915091508160001461323857600554600054613238916001600160a01b0390811691610100900416846127cf565b801561326057600654600054613260916001600160a01b0390811691610100900416836127cf565b60008054604080516335313c2160e11b815230600482015290516101009092046001600160a01b031692636a627842926024808401936020939083900390910190829087803b1580156132b257600080fd5b505af11580156132c6573d6000803e3d6000fd5b505050506040513d60208110156132dc57600080fd5b5050980397909603955b6132f288888484613841565b6132fa612b0f565b5050505050505050565b600080600080613312612bf3565b9150915084156133415761333c60028704826001600160701b0316846001600160701b0316613d66565b613346565b600286045b9350846133725761336d60028704836001600160701b0316836001600160701b0316613d66565b613377565b600286045b925050509250929050565b600b5460075460009182918280613397612bf3565b915091506000806133a6610432565b509150915060008b6133b857826133ba565b815b6001600160701b0316905060008c6133d257856133e6565b600e54600160701b90046001600160701b03165b6001600160701b0316905061340a8d838e613402856000613440565b868d8d613bc6565b995061342e8d61341a8c8e613bae565b8e613426856000613440565b868d8d613e56565b98505050505050505050935093915050565b60008054604080516370a0823160e01b81523060048201529051839261010090046001600160a01b0316916370a08231916024808301926020929190829003018186803b15801561349057600080fd5b505afa1580156134a4573d6000803e3d6000fd5b505050506040513d60208110156134ba57600080fd5b505160008054604080516318160ddd60e01b8152905193945091926101009091046001600160a01b0316916318160ddd916004808301926020929190829003018186803b15801561350a57600080fd5b505afa15801561351e573d6000803e3d6000fd5b505050506040513d602081101561353457600080fd5b50519050801580613543575081155b6135655780613558868463ffffffff61299016565b8161355f57fe5b04613567565b835b95945050505050565b6000613582828563ffffffff61255f16565b61359d670de0b6b3a76400008590038763ffffffff61299016565b816135a457fe5b0495945050505050565b60008060006135bb612bf3565b915091506000806135ca610432565b5091509150600088156136fd576135eb846001600160701b03166001613440565b60020261369661360f846001600160701b031660075461255f90919063ffffffff16565b600054604080516370a0823160e01b815230600482015290516101009092046001600160a01b0316916370a0823191602480820192602092909190829003018186803b15801561365e57600080fd5b505afa158015613672573d6000803e3d6000fd5b505050506040513d602081101561368857600080fd5b50519063ffffffff61299016565b8161369d57fe5b0490506136f66136c76136c06001600160701b038716600263ffffffff61299016565b6001613440565b6136e0836001600160701b03861663ffffffff61299016565b816136e757fe5b8391900463ffffffff613b0416565b90506137db565b600054604080516370a0823160e01b81523060048201529051670de0b6b3a764000092613795926101009091046001600160a01b0316916370a0823191602480820192602092909190829003018186803b15801561375a57600080fd5b505afa15801561376e573d6000803e3d6000fd5b505050506040513d602081101561378457600080fd5b5051600b549063ffffffff61299016565b8161379c57fe5b0490506137d86137bf6136c06001600160701b038816600263ffffffff61299016565b6136e0836001600160701b03871663ffffffff61299016565b90505b866137ec898363ffffffff61299016565b816137f357fe5b049550600086116138355760405162461bcd60e51b8152600401808060200182810382526021815260200180613f396021913960400191505060405180910390fd5b50505050509392505050565b83826001600160701b0316101561394557600554600054613895916001600160a01b0390811691610100900416613887876001600160701b03871663ffffffff61255f16565b6001600160701b03166127cf565b60008054604080516321913af360e11b815230600482015260ff83161515602482015290516101009092046001600160a01b03169263432275e6926044808401936060939083900390910190829087803b1580156138f257600080fd5b505af1158015613906573d6000803e3d6000fd5b505050506040513d606081101561391c57600080fd5b5050600e80546dffffffffffffffffffffffffffff19166001600160701b038416179055613968565b600e80546dffffffffffffffffffffffffffff19166001600160701b0386161790555b82816001600160701b03161015613a74576006546000546139ae916001600160a01b0390811691610100900416613887866001600160701b03861663ffffffff61255f16565b60008054604080516321913af360e11b815230600482015260ff831615602482015290516101009092046001600160a01b03169263432275e6926044808401936060939083900390910190829087803b158015613a0a57600080fd5b505af1158015613a1e573d6000803e3d6000fd5b505050506040513d6060811015613a3457600080fd5b5050600e80547fffffffff0000000000000000000000000000ffffffffffffffffffffffffffff16600160701b6001600160701b03841602179055613aae565b600e80547fffffffff0000000000000000000000000000ffffffffffffffffffffffffffff16600160701b6001600160701b038616021790555b600e54604080516001600160701b038084168252600160701b909304909216602083015280517f1d96001f313f6446e46c7776b79d231589555627a46fa2388f3220937fc79e519281900390910190a150505050565b808201828110156125b7576040805162461bcd60e51b815260206004820152601460248201527f64732d6d6174682d6164642d6f766572666c6f77000000000000000000000000604482015290519081900360640190fd5b60006003821115613b9f575080600160028204015b81811015613b9957809150600281828581613b8857fe5b040181613b9157fe5b049050613b71565b50613ba9565b8115613ba9575060015b919050565b6000818310613bbd5781613bbf565b825b9392505050565b60008715613c4c57613c458615613bde576000613be2565b6103e85b670de0b6b3a7640000613c318915613c1a5785613c0d8b670de0b6b3a764000063ffffffff61299016565b81613c1457fe5b04613c24565b670de0b6b3a76400005b8b9063ffffffff61299016565b81613c3857fe5b049063ffffffff61255f16565b9050613d00565b60008615613c6957613c64888863ffffffff61299016565b613c81565b613c8188670de0b6b3a764000063ffffffff61299016565b90506000670de0b6b3a7640000613ca360026112b28a8963ffffffff61299016565b81613caa57fe5b04905060008815613cca57613cc5878363ffffffff613b0416565b613cdb565b613cdb86600263ffffffff61299016565b9050613cfa8915613ced576000613cf1565b6103e85b828581613c3857fe5b93505050505b979650505050505050565b6000808085613d20888663ffffffff61299016565b81613d2757fe5b04905084811115613d555784925086613d46848863ffffffff61299016565b81613d4d57fe5b049150613d5c565b8092508391505b5094509492505050565b6000808411613da65760405162461bcd60e51b815260040180806020018281038252602b815260200180613f5a602b913960400191505060405180910390fd5b600083118015613db65750600082115b613df15760405162461bcd60e51b8152600401808060200182810382526028815260200180613f116028913960400191505060405180910390fd5b6000613e05856103e563ffffffff61299016565b90506000613e19828563ffffffff61299016565b90506000613e3f83613e33886103e863ffffffff61299016565b9063ffffffff613b0416565b9050808281613e4a57fe5b04979650505050505050565b60008715613e7e5785613e6f838963ffffffff61299016565b81613e7657fe5b049050613d00565b85613ea3886112b287670de0b6b3a76400006118b56002848d8c63ffffffff61299016565b81613eaa57fe5b0498975050505050505050565b60408051808201909152600080825260208201529056fe5a503a204e6f7420656e6f756768206c697175696469747920696e7365727465645a6972636f6e50796c6f6e3a204e6f7420456e6f756768204c6971756964697479556e697377617056324c6962726172793a20494e53554646494349454e545f4c49515549444954595a503a20494e53554646494349454e545f4c49515549444954595f4255524e4544556e697377617056324c6962726172793a20494e53554646494349454e545f494e5055545f414d4f554e54a265627a7a72315820a07ddab41634381002003b7f22d5213c582d94799fd4981a109cedb407215bd164736f6c634300051000326080604052600160095534801561001557600080fd5b506040514690806052610f5d823960408051918290036052018220828201825260068352652d34b931b7b760d11b6020938401528151808301835260018152603160f81b908401528151808401919091527f94c6df7cbb14f58e7ac6d9fa315f8346b33ef43dae2423c0e0e94673dd9e65ff818301527fc89efdaa54c0f20c7adf612882df0950f5a951637e0307cdcb4c672f298b8bc6606082015260808101949094523060a0808601919091528151808603909101815260c09094019052825192019190912060045550600780546001600160a01b03191633179055610e5c806101016000396000f3fe608060405234801561001057600080fd5b50600436106101775760003560e01c80637ecebe00116100d8578063b89f59ea1161008c578063dd62ed3e11610066578063dd62ed3e1461041e578063fc0c546a1461044c578063fecf97341461045457610177565b8063b89f59ea146103bd578063c45a0155146103c5578063d505accf146103cd57610177565b80639dc29fac116100bd5780639dc29fac1461035d578063a8aa1b3114610389578063a9059cbb1461039157610177565b80637ecebe001461032f57806395d89b411461035557610177565b8063313ce5671161012f57806340c10f191161011457806340c10f19146102b757806346847794146102e557806370a082311461030957610177565b8063313ce567146102915780633644e515146102af57610177565b806318160ddd1161016057806318160ddd1461023957806323b872dd1461025357806330adf81f1461028957610177565b806306fdde031461017c578063095ea7b3146101f9575b600080fd5b610184610492565b6040805160208082528351818301528351919283929083019185019080838360005b838110156101be5781810151838201526020016101a6565b50505050905090810190601f1680156101eb5780820380516001836020036101000a031916815260200191505b509250505060405180910390f35b6102256004803603604081101561020f57600080fd5b506001600160a01b0381351690602001356104cb565b604080519115158252519081900360200190f35b6102416104e2565b60408051918252519081900360200190f35b6102256004803603606081101561026957600080fd5b506001600160a01b038135811691602081013590911690604001356104e8565b610241610582565b6102996105a6565b6040805160ff9092168252519081900360200190f35b6102416105ab565b6102e3600480360360408110156102cd57600080fd5b506001600160a01b0381351690602001356105b1565b005b6102ed61067f565b604080516001600160a01b039092168252519081900360200190f35b6102416004803603602081101561031f57600080fd5b50356001600160a01b031661068e565b6102416004803603602081101561034557600080fd5b50356001600160a01b03166106a0565b6101846106b2565b6102e36004803603604081101561037357600080fd5b506001600160a01b0381351690602001356106eb565b6102ed6107b0565b610225600480360360408110156103a757600080fd5b506001600160a01b0381351690602001356107bf565b6102256107cc565b6102ed6107dc565b6102e3600480360360e08110156103e357600080fd5b506001600160a01b03813581169160208101359091169060408101359060608101359060ff6080820135169060a08101359060c001356107eb565b6102416004803603604081101561043457600080fd5b506001600160a01b0381358116916020013516610a13565b6102ed610a30565b6102e36004803603608081101561046a57600080fd5b506001600160a01b038135811691602081013582169160408201351690606001351515610a3f565b6040518060400160405280600681526020017f5a6972636f6e000000000000000000000000000000000000000000000000000081525081565b60006104d8338484610b27565b5060015b92915050565b60005481565b6001600160a01b03831660009081526002602090815260408083203384529091528120546000191461056d576001600160a01b0384166000908152600260209081526040808320338452909152902054610548908363ffffffff610b8916565b6001600160a01b03851660009081526002602090815260408083203384529091529020555b610578848484610be1565b5060019392505050565b7f6e71edae12b1b97f4d1f60370fef10105fa2faae0126114a169c64845d6126c981565b601281565b60045481565b600954600114610608576040805162461bcd60e51b815260206004820152601160248201527f556e697377617056323a204c4f434b4544000000000000000000000000000000604482015290519081900360640190fd5b60006009556008546001600160a01b0316331461066c576040805162461bcd60e51b815260206004820152601a60248201527f5a6972636f6e506f6f6c546f6b656e3a20464f5242494444454e000000000000604482015290519081900360640190fd5b6106768282610c9b565b50506001600955565b6008546001600160a01b031681565b60016020526000908152604090205481565b60036020526000908152604090205481565b6040518060400160405280600381526020017f5a5054000000000000000000000000000000000000000000000000000000000081525081565b600954600114610742576040805162461bcd60e51b815260206004820152601160248201527f556e697377617056323a204c4f434b4544000000000000000000000000000000604482015290519081900360640190fd5b60006009556008546001600160a01b031633146107a6576040805162461bcd60e51b815260206004820152601a60248201527f5a6972636f6e506f6f6c546f6b656e3a20464f5242494444454e000000000000604482015290519081900360640190fd5b6106768282610d31565b6006546001600160a01b031681565b60006104d8338484610be1565b600654600160a01b900460ff1681565b6007546001600160a01b031681565b42841015610840576040805162461bcd60e51b815260206004820152601260248201527f556e697377617056323a20455850495245440000000000000000000000000000604482015290519081900360640190fd5b6004546001600160a01b0380891660008181526003602090815260408083208054600180820190925582517f6e71edae12b1b97f4d1f60370fef10105fa2faae0126114a169c64845d6126c98186015280840196909652958d166060860152608085018c905260a085019590955260c08085018b90528151808603909101815260e0850182528051908301207f19010000000000000000000000000000000000000000000000000000000000006101008601526101028501969096526101228085019690965280518085039096018652610142840180825286519683019690962095839052610162840180825286905260ff89166101828501526101a284018890526101c28401879052519193926101e280820193601f1981019281900390910190855afa158015610976573d6000803e3d6000fd5b5050604051601f1901519150506001600160a01b038116158015906109ac5750886001600160a01b0316816001600160a01b0316145b6109fd576040805162461bcd60e51b815260206004820152601c60248201527f556e697377617056323a20494e56414c49445f5349474e415455524500000000604482015290519081900360640190fd5b610a08898989610b27565b505050505050505050565b600260209081526000928352604080842090915290825290205481565b6005546001600160a01b031681565b6007546001600160a01b03163314610a9e576040805162461bcd60e51b815260206004820152601a60248201527f5a6972636f6e506f6f6c546f6b656e3a20464f5242494444454e000000000000604482015290519081900360640190fd5b600580546001600160a01b039586167fffffffffffffffffffffffff00000000000000000000000000000000000000009182161790915560068054921515600160a01b027fffffffffffffffffffffff00ffffffffffffffffffffffffffffffffffffffff95871693831693909317949094169190911790925560088054919093169116179055565b6001600160a01b03808416600081815260026020908152604080832094871680845294825291829020859055815185815291517f8c5be1e5ebec7d5bd14f71427d1e84f3dd0314c0f7b2291e5b200ac8c7c3b9259281900390910190a3505050565b808203828111156104dc576040805162461bcd60e51b815260206004820152601560248201527f64732d6d6174682d7375622d756e646572666c6f770000000000000000000000604482015290519081900360640190fd5b6001600160a01b038316600090815260016020526040902054610c0a908263ffffffff610b8916565b6001600160a01b038085166000908152600160205260408082209390935590841681522054610c3f908263ffffffff610dcf16565b6001600160a01b0380841660008181526001602090815260409182902094909455805185815290519193928716927fddf252ad1be2c89b69c2b068fc378daa952ba7f163c4a11628f55a4df523b3ef92918290030190a3505050565b600054610cae908263ffffffff610dcf16565b60009081556001600160a01b038316815260016020526040902054610cd9908263ffffffff610dcf16565b6001600160a01b03831660008181526001602090815260408083209490945583518581529351929391927fddf252ad1be2c89b69c2b068fc378daa952ba7f163c4a11628f55a4df523b3ef9281900390910190a35050565b6001600160a01b038216600090815260016020526040902054610d5a908263ffffffff610b8916565b6001600160a01b03831660009081526001602052604081209190915554610d87908263ffffffff610b8916565b60009081556040805183815290516001600160a01b038516917fddf252ad1be2c89b69c2b068fc378daa952ba7f163c4a11628f55a4df523b3ef919081900360200190a35050565b808201828110156104dc576040805162461bcd60e51b815260206004820152601460248201527f64732d6d6174682d6164642d6f766572666c6f77000000000000000000000000604482015290519081900360640190fdfea265627a7a72315820c312f4df8af51104446ec010caa0b8cb8766c51182fe8660ec10ef99b3bed58164736f6c63430005100032454950373132446f6d61696e28737472696e67206e616d652c737472696e672076657273696f6e2c75696e7432353620636861696e49642c6164647265737320766572696679696e67436f6e747261637429a265627a7a72315820ba75971fb70835241b561d86c17b34be9267361109186c2208a05efe6c7437aa64736f6c63430005100032",
  "linkReferences": {},
  "deployedLinkReferences": {}
}