{
  "_format": "hh-sol-artifact-1",
  "contractName": "ZirconPair",
  "sourceName": "contracts/core/ZirconPair.sol",
  "abi": [
    {
      "inputs": [],
      "payable": false,
      "stateMutability": "nonpayable",
      "type": "constructor"
    },
    {
      "anonymous": false,
      "inputs": [
        {
          "indexed": true,
          "internalType": "address",
          "name": "owner",
          "type": "address"
        },
        {
          "indexed": true,
          "internalType": "address",
          "name": "spender",
          "type": "address"
        },
        {
          "indexed": false,
          "internalType": "uint256",
          "name": "value",
          "type": "uint256"
        }
      ],
      "name": "Approval",
      "type": "event"
    },
    {
      "anonymous": false,
      "inputs": [
        {
          "indexed": true,
          "internalType": "address",
          "name": "sender",
          "type": "address"
        },
        {
          "indexed": false,
          "internalType": "uint256",
          "name": "amount0",
          "type": "uint256"
        },
        {
          "indexed": false,
          "internalType": "uint256",
          "name": "amount1",
          "type": "uint256"
        },
        {
          "indexed": true,
          "internalType": "address",
          "name": "to",
          "type": "address"
        }
      ],
      "name": "Burn",
      "type": "event"
    },
    {
      "anonymous": false,
      "inputs": [
        {
          "indexed": true,
          "internalType": "address",
          "name": "sender",
          "type": "address"
        },
        {
          "indexed": false,
          "internalType": "uint256",
          "name": "amount0",
          "type": "uint256"
        },
        {
          "indexed": false,
          "internalType": "uint256",
          "name": "amount1",
          "type": "uint256"
        }
      ],
      "name": "Mint",
      "type": "event"
    },
    {
      "anonymous": false,
      "inputs": [
        {
          "indexed": true,
          "internalType": "address",
          "name": "sender",
          "type": "address"
        },
        {
          "indexed": false,
          "internalType": "uint256",
          "name": "amount0In",
          "type": "uint256"
        },
        {
          "indexed": false,
          "internalType": "uint256",
          "name": "amount1In",
          "type": "uint256"
        },
        {
          "indexed": false,
          "internalType": "uint256",
          "name": "amount0Out",
          "type": "uint256"
        },
        {
          "indexed": false,
          "internalType": "uint256",
          "name": "amount1Out",
          "type": "uint256"
        },
        {
          "indexed": true,
          "internalType": "address",
          "name": "to",
          "type": "address"
        }
      ],
      "name": "Swap",
      "type": "event"
    },
    {
      "anonymous": false,
      "inputs": [
        {
          "indexed": true,
          "internalType": "address",
          "name": "sender",
          "type": "address"
        },
        {
          "indexed": false,
          "internalType": "uint256",
          "name": "amount0Out",
          "type": "uint256"
        },
        {
          "indexed": false,
          "internalType": "uint256",
          "name": "amount1Out",
          "type": "uint256"
        },
        {
          "indexed": true,
          "internalType": "address",
          "name": "to",
          "type": "address"
        }
      ],
      "name": "SwapNoFee",
      "type": "event"
    },
    {
      "anonymous": false,
      "inputs": [
        {
          "indexed": false,
          "internalType": "uint112",
          "name": "reserve0",
          "type": "uint112"
        },
        {
          "indexed": false,
          "internalType": "uint112",
          "name": "reserve1",
          "type": "uint112"
        }
      ],
      "name": "Sync",
      "type": "event"
    },
    {
      "anonymous": false,
      "inputs": [
        {
          "indexed": false,
          "internalType": "uint256",
          "name": "ratio",
          "type": "uint256"
        }
      ],
      "name": "TEST",
      "type": "event"
    },
    {
      "anonymous": false,
      "inputs": [
        {
          "indexed": true,
          "internalType": "address",
          "name": "from",
          "type": "address"
        },
        {
          "indexed": true,
          "internalType": "address",
          "name": "to",
          "type": "address"
        },
        {
          "indexed": false,
          "internalType": "uint256",
          "name": "value",
          "type": "uint256"
        }
      ],
      "name": "Transfer",
      "type": "event"
    },
    {
      "constant": true,
      "inputs": [],
      "name": "DOMAIN_SEPARATOR",
      "outputs": [
        {
          "internalType": "bytes32",
          "name": "",
          "type": "bytes32"
        }
      ],
      "payable": false,
      "stateMutability": "view",
      "type": "function"
    },
    {
      "constant": true,
      "inputs": [],
      "name": "MINIMUM_LIQUIDITY",
      "outputs": [
        {
          "internalType": "uint256",
          "name": "",
          "type": "uint256"
        }
      ],
      "payable": false,
      "stateMutability": "view",
      "type": "function"
    },
    {
      "constant": true,
      "inputs": [],
      "name": "PERMIT_TYPEHASH",
      "outputs": [
        {
          "internalType": "bytes32",
          "name": "",
          "type": "bytes32"
        }
      ],
      "payable": false,
      "stateMutability": "view",
      "type": "function"
    },
    {
      "constant": true,
      "inputs": [
        {
          "internalType": "address",
          "name": "",
          "type": "address"
        },
        {
          "internalType": "address",
          "name": "",
          "type": "address"
        }
      ],
      "name": "allowance",
      "outputs": [
        {
          "internalType": "uint256",
          "name": "",
          "type": "uint256"
        }
      ],
      "payable": false,
      "stateMutability": "view",
      "type": "function"
    },
    {
      "constant": false,
      "inputs": [
        {
          "internalType": "address",
          "name": "spender",
          "type": "address"
        },
        {
          "internalType": "uint256",
          "name": "value",
          "type": "uint256"
        }
      ],
      "name": "approve",
      "outputs": [
        {
          "internalType": "bool",
          "name": "",
          "type": "bool"
        }
      ],
      "payable": false,
      "stateMutability": "nonpayable",
      "type": "function"
    },
    {
      "constant": true,
      "inputs": [
        {
          "internalType": "address",
          "name": "",
          "type": "address"
        }
      ],
      "name": "balanceOf",
      "outputs": [
        {
          "internalType": "uint256",
          "name": "",
          "type": "uint256"
        }
      ],
      "payable": false,
      "stateMutability": "view",
      "type": "function"
    },
    {
      "constant": false,
      "inputs": [
        {
          "internalType": "address",
          "name": "to",
          "type": "address"
        }
      ],
      "name": "burn",
      "outputs": [
        {
          "internalType": "uint256",
          "name": "amount0",
          "type": "uint256"
        },
        {
          "internalType": "uint256",
          "name": "amount1",
          "type": "uint256"
        }
      ],
      "payable": false,
      "stateMutability": "nonpayable",
      "type": "function"
    },
    {
      "constant": false,
      "inputs": [
        {
          "internalType": "address",
          "name": "to",
          "type": "address"
        },
        {
          "internalType": "bool",
          "name": "isReserve0",
          "type": "bool"
        }
      ],
      "name": "burnOneSide",
      "outputs": [
        {
          "internalType": "uint256",
          "name": "amount",
          "type": "uint256"
        }
      ],
      "payable": false,
      "stateMutability": "nonpayable",
      "type": "function"
    },
    {
      "constant": true,
      "inputs": [],
      "name": "decimals",
      "outputs": [
        {
          "internalType": "uint8",
          "name": "",
          "type": "uint8"
        }
      ],
      "payable": false,
      "stateMutability": "view",
      "type": "function"
    },
    {
      "constant": true,
      "inputs": [],
      "name": "factory",
      "outputs": [
        {
          "internalType": "address",
          "name": "",
          "type": "address"
        }
      ],
      "payable": false,
      "stateMutability": "view",
      "type": "function"
    },
    {
      "constant": true,
      "inputs": [],
      "name": "getReserves",
      "outputs": [
        {
          "internalType": "uint112",
          "name": "_reserve0",
          "type": "uint112"
        },
        {
          "internalType": "uint112",
          "name": "_reserve1",
          "type": "uint112"
        },
        {
          "internalType": "uint32",
          "name": "_blockTimestampLast",
          "type": "uint32"
        }
      ],
      "payable": false,
      "stateMutability": "view",
      "type": "function"
    },
    {
      "constant": false,
      "inputs": [
        {
          "internalType": "address",
          "name": "_token0",
          "type": "address"
        },
        {
          "internalType": "address",
          "name": "_token1",
          "type": "address"
        }
      ],
      "name": "initialize",
      "outputs": [],
      "payable": false,
      "stateMutability": "nonpayable",
      "type": "function"
    },
    {
      "constant": true,
      "inputs": [],
      "name": "kLast",
      "outputs": [
        {
          "internalType": "uint256",
          "name": "",
          "type": "uint256"
        }
      ],
      "payable": false,
      "stateMutability": "view",
      "type": "function"
    },
    {
      "constant": false,
      "inputs": [
        {
          "internalType": "address",
          "name": "to",
          "type": "address"
        }
      ],
      "name": "mint",
      "outputs": [
        {
          "internalType": "uint256",
          "name": "liquidity",
          "type": "uint256"
        }
      ],
      "payable": false,
      "stateMutability": "nonpayable",
      "type": "function"
    },
    {
      "constant": false,
      "inputs": [
        {
          "internalType": "address",
          "name": "to",
          "type": "address"
        },
        {
          "internalType": "bool",
          "name": "isReserve0",
          "type": "bool"
        }
      ],
      "name": "mintOneSide",
      "outputs": [
        {
          "internalType": "uint256",
          "name": "liquidity",
          "type": "uint256"
        },
        {
          "internalType": "uint256",
          "name": "amount0",
          "type": "uint256"
        },
        {
          "internalType": "uint256",
          "name": "amount1",
          "type": "uint256"
        }
      ],
      "payable": false,
      "stateMutability": "nonpayable",
      "type": "function"
    },
    {
      "constant": true,
      "inputs": [],
      "name": "name",
      "outputs": [
        {
          "internalType": "string",
          "name": "",
          "type": "string"
        }
      ],
      "payable": false,
      "stateMutability": "view",
      "type": "function"
    },
    {
      "constant": true,
      "inputs": [
        {
          "internalType": "address",
          "name": "",
          "type": "address"
        }
      ],
      "name": "nonces",
      "outputs": [
        {
          "internalType": "uint256",
          "name": "",
          "type": "uint256"
        }
      ],
      "payable": false,
      "stateMutability": "view",
      "type": "function"
    },
    {
      "constant": false,
      "inputs": [
        {
          "internalType": "address",
          "name": "owner",
          "type": "address"
        },
        {
          "internalType": "address",
          "name": "spender",
          "type": "address"
        },
        {
          "internalType": "uint256",
          "name": "value",
          "type": "uint256"
        },
        {
          "internalType": "uint256",
          "name": "deadline",
          "type": "uint256"
        },
        {
          "internalType": "uint8",
          "name": "v",
          "type": "uint8"
        },
        {
          "internalType": "bytes32",
          "name": "r",
          "type": "bytes32"
        },
        {
          "internalType": "bytes32",
          "name": "s",
          "type": "bytes32"
        }
      ],
      "name": "permit",
      "outputs": [],
      "payable": false,
      "stateMutability": "nonpayable",
      "type": "function"
    },
    {
      "constant": true,
      "inputs": [],
      "name": "price0CumulativeLast",
      "outputs": [
        {
          "internalType": "uint256",
          "name": "",
          "type": "uint256"
        }
      ],
      "payable": false,
      "stateMutability": "view",
      "type": "function"
    },
    {
      "constant": true,
      "inputs": [],
      "name": "price1CumulativeLast",
      "outputs": [
        {
          "internalType": "uint256",
          "name": "",
          "type": "uint256"
        }
      ],
      "payable": false,
      "stateMutability": "view",
      "type": "function"
    },
    {
      "constant": false,
      "inputs": [
        {
          "internalType": "address",
          "name": "to",
          "type": "address"
        }
      ],
      "name": "skim",
      "outputs": [],
      "payable": false,
      "stateMutability": "nonpayable",
      "type": "function"
    },
    {
      "constant": false,
      "inputs": [
        {
          "internalType": "uint256",
          "name": "amount0Out",
          "type": "uint256"
        },
        {
          "internalType": "uint256",
          "name": "amount1Out",
          "type": "uint256"
        },
        {
          "internalType": "address",
          "name": "to",
          "type": "address"
        },
        {
          "internalType": "bytes",
          "name": "data",
          "type": "bytes"
        }
      ],
      "name": "swap",
      "outputs": [],
      "payable": false,
      "stateMutability": "nonpayable",
      "type": "function"
    },
    {
      "constant": true,
      "inputs": [],
      "name": "symbol",
      "outputs": [
        {
          "internalType": "string",
          "name": "",
          "type": "string"
        }
      ],
      "payable": false,
      "stateMutability": "view",
      "type": "function"
    },
    {
      "constant": false,
      "inputs": [],
      "name": "sync",
      "outputs": [],
      "payable": false,
      "stateMutability": "nonpayable",
      "type": "function"
    },
    {
      "constant": true,
      "inputs": [],
      "name": "token0",
      "outputs": [
        {
          "internalType": "address",
          "name": "",
          "type": "address"
        }
      ],
      "payable": false,
      "stateMutability": "view",
      "type": "function"
    },
    {
      "constant": true,
      "inputs": [],
      "name": "token1",
      "outputs": [
        {
          "internalType": "address",
          "name": "",
          "type": "address"
        }
      ],
      "payable": false,
      "stateMutability": "view",
      "type": "function"
    },
    {
      "constant": true,
      "inputs": [],
      "name": "totalSupply",
      "outputs": [
        {
          "internalType": "uint256",
          "name": "",
          "type": "uint256"
        }
      ],
      "payable": false,
      "stateMutability": "view",
      "type": "function"
    },
    {
      "constant": false,
      "inputs": [
        {
          "internalType": "address",
          "name": "to",
          "type": "address"
        },
        {
          "internalType": "uint256",
          "name": "value",
          "type": "uint256"
        }
      ],
      "name": "transfer",
      "outputs": [
        {
          "internalType": "bool",
          "name": "",
          "type": "bool"
        }
      ],
      "payable": false,
      "stateMutability": "nonpayable",
      "type": "function"
    },
    {
      "constant": false,
      "inputs": [
        {
          "internalType": "address",
          "name": "from",
          "type": "address"
        },
        {
          "internalType": "address",
          "name": "to",
          "type": "address"
        },
        {
          "internalType": "uint256",
          "name": "value",
          "type": "uint256"
        }
      ],
      "name": "transferFrom",
      "outputs": [
        {
          "internalType": "bool",
          "name": "",
          "type": "bool"
        }
      ],
      "payable": false,
      "stateMutability": "nonpayable",
      "type": "function"
    },
    {
      "constant": false,
      "inputs": [],
      "name": "tryLock",
      "outputs": [],
      "payable": false,
      "stateMutability": "nonpayable",
      "type": "function"
    }
  ],
  "bytecode": "0x60806040526001600c5534801561001557600080fd5b5060405146908060526131ea823960408051918290036052018220828201825260068352652d34b931b7b760d11b6020938401528151808301835260018152603160f81b908401528151808401919091527f94c6df7cbb14f58e7ac6d9fa315f8346b33ef43dae2423c0e0e94673dd9e65ff818301527fc89efdaa54c0f20c7adf612882df0950f5a951637e0307cdcb4c672f298b8bc6606082015260808101949094523060a0808601919091528151808603909101815260c09094019052825192019190912060045550600580546001600160a01b031916331790556130e9806101016000396000f3fe608060405234801561001057600080fd5b50600436106101da5760003560e01c80635a3d549311610104578063a9059cbb116100a2578063d21220a711610071578063d21220a7146105e7578063d505accf146105ef578063dd62ed3e14610640578063fff6cae91461066e576101da565b8063a9059cbb14610585578063ba9a7a56146105b1578063bc25cf77146105b9578063c45a0155146105df576101da565b80637464fc3d116100de5780637464fc3d146105105780637ecebe001461051857806389afcb441461053e57806395d89b411461057d576101da565b80635a3d5493146104bc5780636a627842146104c457806370a08231146104ea576101da565b806323b872dd1161017c5780633644e5151161014b5780633644e51514610432578063432275e61461043a578063485cc955146104865780635909c0d5146104b4576101da565b806323b872dd146103a85780632ce51090146103de57806330adf81f1461040c578063313ce56714610414576101da565b8063095ea7b3116101b8578063095ea7b3146103225780630dfe16811461036257806311816b041461038657806318160ddd1461038e576101da565b8063022c0d9f146101df57806306fdde031461026d5780630902f1ac146102ea575b600080fd5b61026b600480360360808110156101f557600080fd5b8135916020810135916001600160a01b03604083013516919081019060808101606082013564010000000081111561022c57600080fd5b82018360208201111561023e57600080fd5b8035906020019184600183028401116401000000008311171561026057600080fd5b509092509050610676565b005b610275610bca565b6040805160208082528351818301528351919283929083019185019080838360005b838110156102af578181015183820152602001610297565b50505050905090810190601f1680156102dc5780820380516001836020036101000a031916815260200191505b509250505060405180910390f35b6102f2610c03565b604080516001600160701b03948516815292909316602083015263ffffffff168183015290519081900360600190f35b61034e6004803603604081101561033857600080fd5b506001600160a01b038135169060200135610c2d565b604080519115158252519081900360200190f35b61036a610c44565b604080516001600160a01b039092168252519081900360200190f35b61026b610c53565b610396610ca5565b60408051918252519081900360200190f35b61034e600480360360608110156103be57600080fd5b506001600160a01b03813581169160208101359091169060400135610cab565b610396600480360360408110156103f457600080fd5b506001600160a01b0381351690602001351515610d45565b6103966111dc565b61041c611200565b6040805160ff9092168252519081900360200190f35b610396611205565b6104686004803603604081101561045057600080fd5b506001600160a01b038135169060200135151561120b565b60408051938452602084019290925282820152519081900360600190f35b61026b6004803603604081101561049c57600080fd5b506001600160a01b03813581169160200135166116f5565b61039661179a565b6103966117a0565b610396600480360360208110156104da57600080fd5b50356001600160a01b03166117a6565b6103966004803603602081101561050057600080fd5b50356001600160a01b0316611c17565b610396611c29565b6103966004803603602081101561052e57600080fd5b50356001600160a01b0316611c2f565b6105646004803603602081101561055457600080fd5b50356001600160a01b0316611c41565b6040805192835260208301919091528051918290030190f35b610275611fe7565b61034e6004803603604081101561059b57600080fd5b506001600160a01b038135169060200135612020565b61039661202d565b61026b600480360360208110156105cf57600080fd5b50356001600160a01b0316612033565b61036a61219e565b61036a6121ad565b61026b600480360360e081101561060557600080fd5b506001600160a01b03813581169160208101359091169060408101359060608101359060ff6080820135169060a08101359060c001356121bc565b6103966004803603604081101561065657600080fd5b506001600160a01b03813581169160200135166123e4565b61026b612401565b600c546001146106c1576040805162461bcd60e51b8152602060048201526011602482015270155b9a5cddd85c158c8e881313d0d2d151607a1b604482015290519081900360640190fd5b6000600c55841515806106d45750600084115b61070f5760405162461bcd60e51b8152600401808060200182810382526025815260200180612f3c6025913960400191505060405180910390fd5b60008061071a610c03565b5091509150816001600160701b03168710801561073f5750806001600160701b031686105b61077a5760405162461bcd60e51b8152600401808060200182810382526021815260200180612f856021913960400191505060405180910390fd5b60065460075460009182916001600160a01b039182169190811690891682148015906107b85750806001600160a01b0316896001600160a01b031614155b610809576040805162461bcd60e51b815260206004820152601560248201527f556e697377617056323a20494e56414c49445f544f0000000000000000000000604482015290519081900360640190fd5b8a1561081a5761081a828a8d61255c565b891561082b5761082b818a8c61255c565b86156108e657886001600160a01b03166310d1e85c338d8d8c8c6040518663ffffffff1660e01b815260040180866001600160a01b03166001600160a01b03168152602001858152602001848152602001806020018281038252848482818152602001925080828437600081840152601f19601f8201169050808301925050509650505050505050600060405180830381600087803b1580156108cd57600080fd5b505af11580156108e1573d6000803e3d6000fd5b505050505b604080516370a0823160e01b815230600482015290516001600160a01b038416916370a08231916024808301926020929190829003018186803b15801561092c57600080fd5b505afa158015610940573d6000803e3d6000fd5b505050506040513d602081101561095657600080fd5b5051604080516370a0823160e01b815230600482015290519195506001600160a01b038316916370a0823191602480820192602092909190829003018186803b1580156109a257600080fd5b505afa1580156109b6573d6000803e3d6000fd5b505050506040513d60208110156109cc57600080fd5b5051925060009150506001600160701b0385168a900383116109ef5760006109fe565b89856001600160701b03160383035b9050600089856001600160701b0316038311610a1b576000610a2a565b89856001600160701b03160383035b90506000821180610a3b5750600081115b610a765760405162461bcd60e51b8152600401808060200182810382526024815260200180612f616024913960400191505060405180910390fd5b6000610aaa610a8c84600363ffffffff61270f16565b610a9e876103e863ffffffff61270f16565b9063ffffffff61277b16565b90506000610ac2610a8c84600363ffffffff61270f16565b9050610af3620f4240610ae76001600160701b038b8116908b1663ffffffff61270f16565b9063ffffffff61270f16565b610b03838363ffffffff61270f16565b1015610b56576040805162461bcd60e51b815260206004820152600c60248201527f556e697377617056323a204b0000000000000000000000000000000000000000604482015290519081900360640190fd5b5050610b64848488886127d3565b60408051838152602081018390528082018d9052606081018c905290516001600160a01b038b169133917fd78ad95fa46c994b6551d0da85fc275fe613ce37657fb8d5e3d130840159d8229181900360800190a350506001600c55505050505050505050565b6040518060400160405280600681526020017f5a6972636f6e000000000000000000000000000000000000000000000000000081525081565b6008546001600160701b0380821692600160701b830490911691600160e01b900463ffffffff1690565b6000610c3a3384846129b0565b5060015b92915050565b6006546001600160a01b031681565b600c54600114610c9e576040805162461bcd60e51b8152602060048201526011602482015270155b9a5cddd85c158c8e881313d0d2d151607a1b604482015290519081900360640190fd5b6001600c55565b60005481565b6001600160a01b038316600090815260026020908152604080832033845290915281205460001914610d30576001600160a01b0384166000908152600260209081526040808320338452909152902054610d0b908363ffffffff61277b16565b6001600160a01b03851660009081526002602090815260408083203384529091529020555b610d3b848484612a12565b5060019392505050565b6000600c54600114610d92576040805162461bcd60e51b8152602060048201526011602482015270155b9a5cddd85c158c8e881313d0d2d151607a1b604482015290519081900360640190fd5b6000600c81905580610da2610c03565b50600654600754604080516370a0823160e01b815230600482015290519496509294506001600160a01b03918216939116916000918291829186916370a08231916024808301926020929190829003018186803b158015610e0257600080fd5b505afa158015610e16573d6000803e3d6000fd5b505050506040513d6020811015610e2c57600080fd5b5051604080516370a0823160e01b815230600482015290519192506000916001600160a01b038716916370a08231916024808301926020929190829003018186803b158015610e7a57600080fd5b505afa158015610e8e573d6000803e3d6000fd5b505050506040513d6020811015610ea457600080fd5b505130600090815260016020526040812054919250610ec38a8a612acc565b60005490915080610eda848763ffffffff61270f16565b81610ee157fe5b04965080610ef5848663ffffffff61270f16565b81610efc57fe5b0495508c15610f7057610f2686878c6001600160701b031603898e6001600160701b031603612c2a565b87019650869b50848c10610f6b5760405162461bcd60e51b81526004018080602001828103825260298152602001806130616029913960400191505060405180910390fd5b610fd6565b610f9187888d6001600160701b031603888d6001600160701b031603612c2a565b86019550859b50838c10610fd65760405162461bcd60e51b81526004018080602001828103825260298152602001806130616029913960400191505060405180910390fd5b600087118015610fe65750600086115b6110215760405162461bcd60e51b8152600401808060200182810382526028815260200180612fc86028913960400191505060405180910390fd5b61102b3084612d0e565b8c156110415761103c898f8e61255c565b61104c565b61104c888f8e61255c565b604080516370a0823160e01b815230600482015290516001600160a01b038b16916370a08231916024808301926020929190829003018186803b15801561109257600080fd5b505afa1580156110a6573d6000803e3d6000fd5b505050506040513d60208110156110bc57600080fd5b5051604080516370a0823160e01b815230600482015290519196506001600160a01b038a16916370a0823191602480820192602092909190829003018186803b15801561110857600080fd5b505afa15801561111c573d6000803e3d6000fd5b505050506040513d602081101561113257600080fd5b5051935061114285858d8d6127d3565b81156111725760085461116e906001600160701b0380821691600160701b90041663ffffffff61270f16565b600b555b8d6001600160a01b0316336001600160a01b03167fdccd412f0b1252819cb1fd330b93224ca42612892bb3f4f789976e6d819364968989604051808381526020018281526020019250505060405180910390a350506001600c5550979a9950505050505050505050565b7f6e71edae12b1b97f4d1f60370fef10105fa2faae0126114a169c64845d6126c981565b601281565b60045481565b6000806000600c5460011461125b576040805162461bcd60e51b8152602060048201526011602482015270155b9a5cddd85c158c8e881313d0d2d151607a1b604482015290519081900360640190fd5b6000600c8190558061126b610c03565b50600654604080516370a0823160e01b815230600482015290519395509193506000926001600160a01b03909116916370a08231916024808301926020929190829003018186803b1580156112bf57600080fd5b505afa1580156112d3573d6000803e3d6000fd5b505050506040513d60208110156112e957600080fd5b5051600754604080516370a0823160e01b815230600482015290519293506000926001600160a01b03909216916370a0823191602480820192602092909190829003018186803b15801561133c57600080fd5b505afa158015611350573d6000803e3d6000fd5b505050506040513d602081101561136657600080fd5b50519050611383826001600160701b03861663ffffffff61277b16565b955061139e816001600160701b03851663ffffffff61277b16565b945087156113d8576008546113cb9060028804906001600160701b0380821691600160701b900416612c2a565b9450600286049550611406565b6113fd600286600854919004906001600160701b03600160701b820481169116612c2a565b95506002850494505b60006114128585612acc565b600054909150806115d25760055460408051637cd07e4760e01b815290516000926001600160a01b031691637cd07e47916004808301926020929190829003018186803b15801561146257600080fd5b505afa158015611476573d6000803e3d6000fd5b505050506040513d602081101561148c57600080fd5b50519050336001600160a01b038216141561155957806001600160a01b03166340dc0e376040518163ffffffff1660e01b815260040160206040518083038186803b1580156114da57600080fd5b505afa1580156114ee573d6000803e3d6000fd5b505050506040513d602081101561150457600080fd5b50519950891580159061151957506000198a14155b6115545760405162461bcd60e51b81526004018080602001828103825260218152602001806130406021913960400191505060405180910390fd5b6115cc565b6001600160a01b0381161561159f5760405162461bcd60e51b8152600401808060200182810382526022815260200180612fa66022913960400191505060405180910390fd5b6115bd6103e8610a9e6115b88c8c63ffffffff61270f16565b612dac565b99506115cc60006103e8612dfe565b50611621565b61161e6001600160701b0387166115ef8a8463ffffffff61270f16565b816115f657fe5b046001600160701b0387166116118a8563ffffffff61270f16565b8161161857fe5b04612e94565b98505b600089116116605760405162461bcd60e51b8152600401808060200182810382526028815260200180612ff06028913960400191505060405180910390fd5b61166a8b8a612dfe565b611676848488886127d3565b81156116a6576008546116a2906001600160701b0380821691600160701b90041663ffffffff61270f16565b600b555b6040805189815260208101899052815133927f4c209b5fc8ad50758f13e2e1088ba56a560dff690a1c6fef26394f4c03821c4f928290030190a25050505050506001600c819055509250925092565b6005546001600160a01b03163314611754576040805162461bcd60e51b815260206004820152601560248201527f5a6972636f6e506169723a20464f5242494444454e0000000000000000000000604482015290519081900360640190fd5b600680546001600160a01b039384167fffffffffffffffffffffffff00000000000000000000000000000000000000009182161790915560078054929093169116179055565b60095481565b600a5481565b6000600c546001146117f3576040805162461bcd60e51b8152602060048201526011602482015270155b9a5cddd85c158c8e881313d0d2d151607a1b604482015290519081900360640190fd5b6000600c81905580611803610c03565b50600654604080516370a0823160e01b815230600482015290519395509193506000926001600160a01b03909116916370a08231916024808301926020929190829003018186803b15801561185757600080fd5b505afa15801561186b573d6000803e3d6000fd5b505050506040513d602081101561188157600080fd5b5051600754604080516370a0823160e01b815230600482015290519293506000926001600160a01b03909216916370a0823191602480820192602092909190829003018186803b1580156118d457600080fd5b505afa1580156118e8573d6000803e3d6000fd5b505050506040513d60208110156118fe57600080fd5b50519050600061191d836001600160701b03871663ffffffff61277b16565b9050600061193a836001600160701b03871663ffffffff61277b16565b905060006119488787612acc565b60005490915080611b035760055460408051637cd07e4760e01b815290516000926001600160a01b031691637cd07e47916004808301926020929190829003018186803b15801561199857600080fd5b505afa1580156119ac573d6000803e3d6000fd5b505050506040513d60208110156119c257600080fd5b50519050336001600160a01b0382161415611a8f57806001600160a01b03166340dc0e376040518163ffffffff1660e01b815260040160206040518083038186803b158015611a1057600080fd5b505afa158015611a24573d6000803e3d6000fd5b505050506040513d6020811015611a3a57600080fd5b505199508915801590611a4f57506000198a14155b611a8a5760405162461bcd60e51b81526004018080602001828103825260218152602001806130406021913960400191505060405180910390fd5b611afd565b6001600160a01b03811615611ad55760405162461bcd60e51b8152600401808060200182810382526022815260200180612fa66022913960400191505060405180910390fd5b611aee6103e8610a9e6115b8888863ffffffff61270f16565b9950611afd60006103e8612dfe565b50611b45565b611b426001600160701b038916611b20868463ffffffff61270f16565b81611b2757fe5b046001600160701b038916611611868563ffffffff61270f16565b98505b60008911611b845760405162461bcd60e51b8152600401808060200182810382526028815260200180612ff06028913960400191505060405180910390fd5b611b8e8a8a612dfe565b611b9a86868a8a6127d3565b8115611bca57600854611bc6906001600160701b0380821691600160701b90041663ffffffff61270f16565b600b555b6040805185815260208101859052815133927f4c209b5fc8ad50758f13e2e1088ba56a560dff690a1c6fef26394f4c03821c4f928290030190a250506001600c5550949695505050505050565b60016020526000908152604090205481565b600b5481565b60036020526000908152604090205481565b600080600c54600114611c8f576040805162461bcd60e51b8152602060048201526011602482015270155b9a5cddd85c158c8e881313d0d2d151607a1b604482015290519081900360640190fd5b6000600c81905580611c9f610c03565b50600654600754604080516370a0823160e01b815230600482015290519496509294506001600160a01b039182169391169160009184916370a08231916024808301926020929190829003018186803b158015611cfb57600080fd5b505afa158015611d0f573d6000803e3d6000fd5b505050506040513d6020811015611d2557600080fd5b5051604080516370a0823160e01b815230600482015290519192506000916001600160a01b038516916370a08231916024808301926020929190829003018186803b158015611d7357600080fd5b505afa158015611d87573d6000803e3d6000fd5b505050506040513d6020811015611d9d57600080fd5b505130600090815260016020526040812054919250611dbc8888612acc565b60005490915080611dd3848763ffffffff61270f16565b81611dda57fe5b049a5080611dee848663ffffffff61270f16565b81611df557fe5b04995060008b118015611e08575060008a115b611e435760405162461bcd60e51b8152600401808060200182810382526028815260200180612fc86028913960400191505060405180910390fd5b611e4d3084612d0e565b611e58878d8d61255c565b611e63868d8c61255c565b604080516370a0823160e01b815230600482015290516001600160a01b038916916370a08231916024808301926020929190829003018186803b158015611ea957600080fd5b505afa158015611ebd573d6000803e3d6000fd5b505050506040513d6020811015611ed357600080fd5b5051604080516370a0823160e01b815230600482015290519196506001600160a01b038816916370a0823191602480820192602092909190829003018186803b158015611f1f57600080fd5b505afa158015611f33573d6000803e3d6000fd5b505050506040513d6020811015611f4957600080fd5b50519350611f5985858b8b6127d3565b8115611f8957600854611f85906001600160701b0380821691600160701b90041663ffffffff61270f16565b600b555b604080518c8152602081018c905281516001600160a01b038f169233927fdccd412f0b1252819cb1fd330b93224ca42612892bb3f4f789976e6d81936496929081900390910190a35050505050505050506001600c81905550915091565b6040518060400160405280600381526020017f5a5054000000000000000000000000000000000000000000000000000000000081525081565b6000610c3a338484612a12565b6103e881565b600c5460011461207e576040805162461bcd60e51b8152602060048201526011602482015270155b9a5cddd85c158c8e881313d0d2d151607a1b604482015290519081900360640190fd5b6000600c55600654600754600854604080516370a0823160e01b815230600482015290516001600160a01b03948516949093169261212d9285928792612128926001600160701b03169185916370a0823191602480820192602092909190829003018186803b1580156120f057600080fd5b505afa158015612104573d6000803e3d6000fd5b505050506040513d602081101561211a57600080fd5b50519063ffffffff61277b16565b61255c565b600854604080516370a0823160e01b81523060048201529051612194928492879261212892600160701b90046001600160701b0316916001600160a01b038616916370a0823191602480820192602092909190829003018186803b1580156120f057600080fd5b50506001600c5550565b6005546001600160a01b031681565b6007546001600160a01b031681565b42841015612211576040805162461bcd60e51b815260206004820152601260248201527f556e697377617056323a20455850495245440000000000000000000000000000604482015290519081900360640190fd5b6004546001600160a01b0380891660008181526003602090815260408083208054600180820190925582517f6e71edae12b1b97f4d1f60370fef10105fa2faae0126114a169c64845d6126c98186015280840196909652958d166060860152608085018c905260a085019590955260c08085018b90528151808603909101815260e0850182528051908301207f19010000000000000000000000000000000000000000000000000000000000006101008601526101028501969096526101228085019690965280518085039096018652610142840180825286519683019690962095839052610162840180825286905260ff89166101828501526101a284018890526101c28401879052519193926101e280820193601f1981019281900390910190855afa158015612347573d6000803e3d6000fd5b5050604051601f1901519150506001600160a01b0381161580159061237d5750886001600160a01b0316816001600160a01b0316145b6123ce576040805162461bcd60e51b815260206004820152601c60248201527f556e697377617056323a20494e56414c49445f5349474e415455524500000000604482015290519081900360640190fd5b6123d98989896129b0565b505050505050505050565b600260209081526000928352604080842090915290825290205481565b600c5460011461244c576040805162461bcd60e51b8152602060048201526011602482015270155b9a5cddd85c158c8e881313d0d2d151607a1b604482015290519081900360640190fd5b6000600c55600654604080516370a0823160e01b81523060048201529051610c9e926001600160a01b0316916370a08231916024808301926020929190829003018186803b15801561249d57600080fd5b505afa1580156124b1573d6000803e3d6000fd5b505050506040513d60208110156124c757600080fd5b5051600754604080516370a0823160e01b815230600482015290516001600160a01b03909216916370a0823191602480820192602092909190829003018186803b15801561251457600080fd5b505afa158015612528573d6000803e3d6000fd5b505050506040513d602081101561253e57600080fd5b50516008546001600160701b0380821691600160701b9004166127d3565b604080518082018252601981527f7472616e7366657228616464726573732c75696e74323536290000000000000060209182015281516001600160a01b0385811660248301526044808301869052845180840390910181526064909201845291810180516001600160e01b03167fa9059cbb000000000000000000000000000000000000000000000000000000001781529251815160009460609489169392918291908083835b602083106126225780518252601f199092019160209182019101612603565b6001836020036101000a0380198251168184511680821785525050505050509050019150506000604051808303816000865af19150503d8060008114612684576040519150601f19603f3d011682016040523d82523d6000602084013e612689565b606091505b50915091508180156126b75750805115806126b757508080602001905160208110156126b457600080fd5b50515b612708576040805162461bcd60e51b815260206004820152601a60248201527f556e697377617056323a205452414e534645525f4641494c4544000000000000604482015290519081900360640190fd5b5050505050565b600081158061272a5750508082028282828161272757fe5b04145b610c3e576040805162461bcd60e51b815260206004820152601460248201527f64732d6d6174682d6d756c2d6f766572666c6f77000000000000000000000000604482015290519081900360640190fd5b80820382811115610c3e576040805162461bcd60e51b815260206004820152601560248201527f64732d6d6174682d7375622d756e646572666c6f770000000000000000000000604482015290519081900360640190fd5b6001600160701b0384118015906127f157506001600160701b038311155b612842576040805162461bcd60e51b815260206004820152601360248201527f556e697377617056323a204f564552464c4f5700000000000000000000000000604482015290519081900360640190fd5b60085463ffffffff42811691600160e01b9004811682039081161580159061287257506001600160701b03841615155b801561288657506001600160701b03831615155b156128f7578063ffffffff166128b48561289f86612eac565b6001600160e01b03169063ffffffff612ebe16565b600980546001600160e01b03929092169290920201905563ffffffff81166128df8461289f87612eac565b600a80546001600160e01b0392909216929092020190555b600880546dffffffffffffffffffffffffffff19166001600160701b03888116919091177fffffffff0000000000000000000000000000ffffffffffffffffffffffffffff16600160701b8883168102919091176001600160e01b0316600160e01b63ffffffff871602179283905560408051848416815291909304909116602082015281517f1c411e9a96e071241c2f21f7726b17ae89e3cab4c78be50e062b03a9fffbbad1929181900390910190a1505050505050565b6001600160a01b03808416600081815260026020908152604080832094871680845294825291829020859055815185815291517f8c5be1e5ebec7d5bd14f71427d1e84f3dd0314c0f7b2291e5b200ac8c7c3b9259281900390910190a3505050565b6001600160a01b038316600090815260016020526040902054612a3b908263ffffffff61277b16565b6001600160a01b038085166000908152600160205260408082209390935590841681522054612a70908263ffffffff612ee316565b6001600160a01b0380841660008181526001602090815260409182902094909455805185815290519193928716927fddf252ad1be2c89b69c2b068fc378daa952ba7f163c4a11628f55a4df523b3ef92918290030190a3505050565b600080600560009054906101000a90046001600160a01b03166001600160a01b031663017e7e586040518163ffffffff1660e01b815260040160206040518083038186803b158015612b1d57600080fd5b505afa158015612b31573d6000803e3d6000fd5b505050506040513d6020811015612b4757600080fd5b5051600b546001600160a01b038216158015945091925090612c16578015612c11576000612b8a6115b86001600160701b0388811690881663ffffffff61270f16565b90506000612b9783612dac565b905080821115612c0e576000612bc5612bb6848463ffffffff61277b16565b6000549063ffffffff61270f16565b90506000612bea83612bde86600563ffffffff61270f16565b9063ffffffff612ee316565b90506000818381612bf757fe5b0490508015612c0a57612c0a8782612dfe565b5050505b50505b612c22565b8015612c22576000600b555b505092915050565b6000808411612c6a5760405162461bcd60e51b815260040180806020018281038252602b81526020018061308a602b913960400191505060405180910390fd5b600083118015612c7a5750600082115b612cb55760405162461bcd60e51b81526004018080602001828103825260288152602001806130186028913960400191505060405180910390fd5b6000612cc9856103e563ffffffff61270f16565b90506000612cdd828563ffffffff61270f16565b90506000612cf783612bde886103e863ffffffff61270f16565b9050808281612d0257fe5b04979650505050505050565b6001600160a01b038216600090815260016020526040902054612d37908263ffffffff61277b16565b6001600160a01b03831660009081526001602052604081209190915554612d64908263ffffffff61277b16565b60009081556040805183815290516001600160a01b038516917fddf252ad1be2c89b69c2b068fc378daa952ba7f163c4a11628f55a4df523b3ef919081900360200190a35050565b60006003821115612def575080600160028204015b81811015612de957809150600281828581612dd857fe5b040181612de157fe5b049050612dc1565b50612df9565b8115612df9575060015b919050565b600054612e11908263ffffffff612ee316565b60009081556001600160a01b038316815260016020526040902054612e3c908263ffffffff612ee316565b6001600160a01b03831660008181526001602090815260408083209490945583518581529351929391927fddf252ad1be2c89b69c2b068fc378daa952ba7f163c4a11628f55a4df523b3ef9281900390910190a35050565b6000818310612ea35781612ea5565b825b9392505050565b6001600160701b0316600160701b0290565b60006001600160701b0382166001600160e01b03841681612edb57fe5b049392505050565b80820182811015610c3e576040805162461bcd60e51b815260206004820152601460248201527f64732d6d6174682d6164642d6f766572666c6f77000000000000000000000000604482015290519081900360640190fdfe556e697377617056323a20494e53554646494349454e545f4f55545055545f414d4f554e54556e697377617056323a20494e53554646494349454e545f494e5055545f414d4f554e54556e697377617056323a20494e53554646494349454e545f4c49515549444954595a6972636f6e506169723a204d757374206e6f742068617665206d69677261746f72556e697377617056323a20494e53554646494349454e545f4c49515549444954595f4255524e4544556e697377617056323a20494e53554646494349454e545f4c49515549444954595f4d494e544544556e697377617056324c6962726172793a20494e53554646494349454e545f4c49515549444954595a6972636f6e506169723a204261642064657369726564206c6971756964697479556e697377617056323a20455854454e53494f4e5f4e4f545f454e4f5547485f4c4951554944495459556e697377617056324c6962726172793a20494e53554646494349454e545f494e5055545f414d4f554e54a265627a7a72315820b90731e8ae02ac6b11f8176197b458a6f9964f8d4b9cbfd04806e4ce21ff048864736f6c63430005100032454950373132446f6d61696e28737472696e67206e616d652c737472696e672076657273696f6e2c75696e7432353620636861696e49642c6164647265737320766572696679696e67436f6e747261637429",
  "linkReferences": {},
  "deployedLinkReferences": {}
}