{
  "_format": "hh-sol-artifact-1",
  "contractName": "ZirconPylonFactory",
  "sourceName": "contracts/core/ZirconPylonFactory.sol",
  "abi": [
    {
      "inputs": [
        {
          "internalType": "address",
          "name": "_factory",
          "type": "address"
        }
      ],
      "payable": false,
      "stateMutability": "nonpayable",
      "type": "constructor"
    },
    {
      "anonymous": false,
      "inputs": [
        {
          "indexed": true,
          "internalType": "address",
          "name": "token0",
          "type": "address"
        },
        {
          "indexed": false,
          "internalType": "address",
          "name": "poolToken",
          "type": "address"
        }
      ],
      "name": "PoolTokenCreated",
      "type": "event"
    },
    {
      "anonymous": false,
      "inputs": [
        {
          "indexed": true,
          "internalType": "address",
          "name": "token0",
          "type": "address"
        },
        {
          "indexed": true,
          "internalType": "address",
          "name": "token1",
          "type": "address"
        },
        {
          "indexed": false,
          "internalType": "address",
          "name": "pair",
          "type": "address"
        }
      ],
      "name": "PylonCreated",
      "type": "event"
    },
    {
      "constant": false,
      "inputs": [
        {
          "internalType": "address",
          "name": "_pairAddress",
          "type": "address"
        },
        {
          "internalType": "address",
          "name": "_tokenA",
          "type": "address"
        },
        {
          "internalType": "address",
          "name": "_tokenB",
          "type": "address"
        }
      ],
      "name": "addPylon",
      "outputs": [
        {
          "internalType": "address",
          "name": "pylonAddress",
          "type": "address"
        }
      ],
      "payable": false,
      "stateMutability": "nonpayable",
      "type": "function"
    },
    {
      "constant": true,
      "inputs": [
        {
          "internalType": "uint256",
          "name": "",
          "type": "uint256"
        }
      ],
      "name": "allPylons",
      "outputs": [
        {
          "internalType": "address",
          "name": "",
          "type": "address"
        }
      ],
      "payable": false,
      "stateMutability": "view",
      "type": "function"
    },
    {
      "constant": true,
      "inputs": [],
      "name": "allPylonsLength",
      "outputs": [
        {
          "internalType": "uint256",
          "name": "",
          "type": "uint256"
        }
      ],
      "payable": false,
      "stateMutability": "view",
      "type": "function"
    },
    {
      "constant": true,
      "inputs": [],
      "name": "dynamicFeePercentage",
      "outputs": [
        {
          "internalType": "uint256",
          "name": "",
          "type": "uint256"
        }
      ],
      "payable": false,
      "stateMutability": "view",
      "type": "function"
    },
    {
      "constant": true,
      "inputs": [],
      "name": "factory",
      "outputs": [
        {
          "internalType": "address",
          "name": "",
          "type": "address"
        }
      ],
      "payable": false,
      "stateMutability": "view",
      "type": "function"
    },
    {
      "constant": true,
      "inputs": [
        {
          "internalType": "address",
          "name": "",
          "type": "address"
        },
        {
          "internalType": "address",
          "name": "",
          "type": "address"
        }
      ],
      "name": "getPylon",
      "outputs": [
        {
          "internalType": "address",
          "name": "",
          "type": "address"
        }
      ],
      "payable": false,
      "stateMutability": "view",
      "type": "function"
    },
    {
      "constant": true,
      "inputs": [],
      "name": "maximumPercentageSync",
      "outputs": [
        {
          "internalType": "uint256",
          "name": "",
          "type": "uint256"
        }
      ],
      "payable": false,
      "stateMutability": "view",
      "type": "function"
    },
    {
      "constant": true,
      "inputs": [],
      "name": "pairCodeHash",
      "outputs": [
        {
          "internalType": "bytes32",
          "name": "",
          "type": "bytes32"
        }
      ],
      "payable": false,
      "stateMutability": "pure",
      "type": "function"
    }
  ],
  "bytecode": "0x608060405234801561001057600080fd5b506040516155373803806155378339818101604052602081101561003357600080fd5b5051600280546001600160a01b0319166001600160a01b03909216919091179055600a60035560056004556154ca8061006d6000396000f3fe608060405234801561001057600080fd5b50600436106100885760003560e01c80639aab92481161005b5780639aab924814610131578063a3ad52b814610139578063afc3743f14610141578063c45a01551461015e57610088565b80630e0f29731461008d5780636c0fb018146100d757806379186af0146100f157806379281abe146100f9575b600080fd5b6100bb600480360360408110156100a357600080fd5b506001600160a01b0381358116916020013516610166565b604080516001600160a01b039092168252519081900360200190f35b6100df610189565b60408051918252519081900360200190f35b6100df61018f565b6100bb6004803603606081101561010f57600080fd5b506001600160a01b038135811691602081013582169160409091013516610195565b6100df610594565b6100df6105c6565b6100bb6004803603602081101561015757600080fd5b50356105cc565b6100bb6105f3565b60006020818152928152604080822090935290815220546001600160a01b031681565b60015490565b60045481565b6000816001600160a01b0316836001600160a01b031614156101fe576040805162461bcd60e51b815260206004820152601760248201527f5a463a204944454e544943414c5f414444524553534553000000000000000000604482015290519081900360640190fd5b6001600160a01b0383811660009081526020818152604080832086851684529091529020541615610276576040805162461bcd60e51b815260206004820152601060248201527f5a463a2050594c4f4e5f45584953545300000000000000000000000000000000604482015290519081900360640190fd5b610281838386610602565b9050600061028f8483610691565b9050600061029d8484610691565b600254604080517fcc2a9a5b0000000000000000000000000000000000000000000000000000000081526001600160a01b0386811660048301528085166024830152898116604483015288811660648301528a8116608483015292831660a482015290519293509085169163cc2a9a5b9160c48082019260009290919082900301818387803b15801561032f57600080fd5b505af1158015610343573d6000803e3d6000fd5b5050604080516001600160a01b0387811682529151828916945091891692507fe5708536132333cfc9aace952614f6d4c6dea711c37ffe874a20cea745adbeb6919081900360200190a360408051633fb3e5cd60e21b81526001600160a01b038781166004830152888116602483015285811660448301526001606483015291519184169163fecf97349160848082019260009290919082900301818387803b1580156103ef57600080fd5b505af1158015610403573d6000803e3d6000fd5b5050604080516001600160a01b038681168252915191891693507fb734785e2fac0d09f3e4d4c0240bc9009e97a639cc8b5bbec49dfb40b18de384925081900360200190a260408051633fb3e5cd60e21b81526001600160a01b0386811660048301528881166024830152858116604483015260006064830181905292519084169263fecf9734926084808201939182900301818387803b1580156104a757600080fd5b505af11580156104bb573d6000803e3d6000fd5b5050604080516001600160a01b038581168252915191881693507fb734785e2fac0d09f3e4d4c0240bc9009e97a639cc8b5bbec49dfb40b18de384925081900360200190a250506001600160a01b03928316600090815260208181526040808320948616835293905291822080549382167fffffffffffffffffffffffff0000000000000000000000000000000000000000948516811790915560018054808201825593527fb10e2d527612073b26eecdfd717e6a320cf44b4afac2b0732d9fcbe2b7fa0cf69092018054909316909117909155919050565b6000604051806020016105a69061072b565b6020820181038252601f19601f8201166040525080519060200120905090565b60035481565b600181815481106105d957fe5b6000918252602090912001546001600160a01b0316905081565b6002546001600160a01b031681565b60006060604051806020016106169061072b565b601f1982820381018352601f9091011660408181526bffffffffffffffffffffffff19606089811b821660208581019190915289821b831660348601529088901b90911660488401528151603c818503018152605c909301909152815191810191909120825192935091829184016000f59695505050505050565b60006060604051806020016106a590610738565b6020820181038252601f19601f8201166040525090506000848460405160200180836001600160a01b03166001600160a01b031660601b8152601401826001600160a01b03166001600160a01b031660601b815260140192505050604051602081830303815290604052805190602001209050808251602084016000f595945050505050565b613da18061074683390190565b610faf806144e78339019056fe6080604052662386f26fc10000600f556001601055600060115534801561002557600080fd5b50600380546001600160a01b03191633179055613d5a806100476000396000f3fe608060405234801561001057600080fd5b50600436106101985760003560e01c806397ed64db116100e3578063ba7b3dea1161008c578063cc2a9a5b11610066578063cc2a9a5b146103b4578063e845d4e514610404578063f29401c41461040c57610198565b8063ba7b3dea14610337578063ba9a7a5614610365578063c561cf4f1461036d57610198565b8063a3ad52b8116100bd578063a3ad52b8146102f9578063a8b0898214610301578063ac9370f31461030957610198565b806397ed64db146102e15780639892c7f1146102e95780639ab9f341146102f157610198565b8063402d82c1116101455780638d470e221161011f5780638d470e221461028f5780638ffa3236146102bd578063966dae0e146102d957610198565b8063402d82c11461025157806379186af01461027f57806387d9b8531461028757610198565b8063192b65d811610176578063192b65d81461021357806322e489a41461021b57806333cdde4e1461022357610198565b806306e53aec1461019d5780630a22d5f3146101c1578063158ef93e146101f9575b600080fd5b6101a5610432565b604080516001600160a01b039092168252519081900360200190f35b6101c9610441565b604080516001600160701b03948516815292909316602083015263ffffffff168183015290519081900360600190f35b610201610484565b60408051918252519081900360200190f35b61020161048a565b6101a5610490565b6102016004803603604081101561023957600080fd5b506001600160a01b038135169060200135151561049f565b610259610946565b604080516001600160a01b03938416815291909216602082015281519081900390910190f35b61020161095c565b610201610962565b610201600480360360408110156102a557600080fd5b506001600160a01b0381351690602001351515610968565b6102c5610bea565b604080519115158252519081900360200190f35b6101a5610bfa565b610201610c09565b6101a5610c0f565b610201610c1e565b610201610c24565b6101a5610c2a565b6102016004803603604081101561031f57600080fd5b506001600160a01b0381351690602001351515610c39565b6102016004803603604081101561034d57600080fd5b506001600160a01b0381351690602001351515611085565b61020161154e565b61039b6004803603604081101561038357600080fd5b506001600160a01b0381351690602001351515611554565b6040805192835260208301919091528051918290030190f35b610402600480360360c08110156103ca57600080fd5b506001600160a01b038135811691602081013582169160408201358116916060810135821691608082013581169160a0013516611aca565b005b610201611de3565b61039b6004803603602081101561042257600080fd5b50356001600160a01b0316611de9565b6005546001600160a01b031681565b600e546001600160701b0380821692600160701b8304909116917c0100000000000000000000000000000000000000000000000000000000900463ffffffff1690565b60115481565b60075481565b6006546001600160a01b031681565b60006010546001146104e5576040805162461bcd60e51b815260206004820152600a60248201526916940e881313d0d2d15160b21b604482015290519081900360640190fd5b6000601055601154600114610537576040805162461bcd60e51b815260206004820152601360248201527216940e881393d5081253925512505312569151606a1b604482015290519081900360640190fd5b61053f612107565b6000600460009054906101000a90046001600160a01b03166001600160a01b031663017e7e586040518163ffffffff1660e01b815260040160206040518083038186803b15801561058f57600080fd5b505afa1580156105a3573d6000803e3d6000fd5b505050506040513d60208110156105b957600080fd5b505190506000836105d5576005546001600160a01b03166105e2565b6006546001600160a01b03165b90506000806105ef610441565b5060008054604080516370a0823160e01b815230600482015290519496509294509092839283926001600160a01b0316916370a0823191602480820192602092909190829003018186803b15801561064657600080fd5b505afa15801561065a573d6000803e3d6000fd5b505050506040513d602081101561067057600080fd5b5051600154604080516370a0823160e01b815230600482015290519293506000926001600160a01b03909216916370a0823191602480820192602092909190829003018186803b1580156106c357600080fd5b505afa1580156106d7573d6000803e3d6000fd5b505050506040513d60208110156106ed57600080fd5b5051905061070a826001600160701b03881663ffffffff61249c16565b9350610725816001600160701b03871663ffffffff61249c16565b925061073384848c8a6124fa565b985050506000811180156107475750600082115b6107825760405162461bcd60e51b8152600401808060200182810382526021815260200180613c916021913960400191505060405180910390fd5b60005460025461079f916001600160a01b0390811691168461270c565b6001546002546107bc916001600160a01b0390811691168361270c565b600254604080516335313c2160e11b815230600482015290516000926001600160a01b031691636a62784291602480830192602092919082900301818787803b15801561080857600080fd5b505af115801561081c573d6000803e3d6000fd5b505050506040513d602081101561083257600080fd5b5051600a54909150600090606490610851908b9063ffffffff6128cd16565b8161085857fe5b0490506108658188612939565b156108705780890398505b866001600160a01b03166340c10f198c8b6040518363ffffffff1660e01b815260040180836001600160a01b03166001600160a01b0316815260200182815260200192505050600060405180830381600087803b1580156108d057600080fd5b505af11580156108e4573d6000803e3d6000fd5b5050604080513381526020810188905280820187905290517f9a36e9f82fd3ab4ec26a87598c0f7f4519b7895fa6a0bca1968b486ee019b08294509081900360600192509050a1610933612a58565b5050600160105550939695505050505050565b6000546001546001600160a01b03918216911682565b600a5481565b600c5481565b60006011546001146109b7576040805162461bcd60e51b815260206004820152601360248201527216940e881393d5081253925512505312569151606a1b604482015290519081900360640190fd5b6010546001146109fb576040805162461bcd60e51b815260206004820152600a60248201526916940e881313d0d2d15160b21b604482015290519081900360640190fd5b6000601055610a08612107565b600080610a13610441565b5091509150600080610a26600080612b3c565b9150915060008615610af557600154604080516370a0823160e01b815230600482015290516000926001600160a01b0316916370a08231916024808301926020929190829003018186803b158015610a7d57600080fd5b505afa158015610a91573d6000803e3d6000fd5b505050506040513d6020811015610aa757600080fd5b50519050610ac4816001600160701b03871663ffffffff61249c16565b600654909250610aed9083906001600160701b0388169086906001600160a01b03168d8d612b81565b965050610bb5565b60008054604080516370a0823160e01b815230600482015290516001600160a01b03909216916370a0823191602480820192602092909190829003018186803b158015610b4157600080fd5b505afa158015610b55573d6000803e3d6000fd5b505050506040513d6020811015610b6b57600080fd5b50519050610b88816001600160701b03881663ffffffff61249c16565b600554909250610bb19083906001600160701b0389169087906001600160a01b03168d8d612b81565b9650505b8615610bc8576007805482019055610bd1565b60088054820190555b610bd9612e41565b505060016010555091949350505050565b600654600160a01b900460ff1681565b6003546001600160a01b031681565b600b5481565b6004546001600160a01b031681565b60085481565b60095481565b6002546001600160a01b031681565b6000601054600114610c7f576040805162461bcd60e51b815260206004820152600a60248201526916940e881313d0d2d15160b21b604482015290519081900360640190fd5b6000601055601154600114610cd1576040805162461bcd60e51b815260206004820152601360248201527216940e881393d5081253925512505312569151606a1b604482015290519081900360640190fd5b610cd9612107565b600080610ce4610441565b509150915060008415610d8b57600154604080516370a0823160e01b815230600482015290516000926001600160a01b0316916370a08231916024808301926020929190829003018186803b158015610d3c57600080fd5b505afa158015610d50573d6000803e3d6000fd5b505050506040513d6020811015610d6657600080fd5b50519050610d83816001600160701b03851663ffffffff61249c16565b915050610e22565b60008054604080516370a0823160e01b815230600482015290516001600160a01b03909216916370a0823191602480820192602092909190829003018186803b158015610dd757600080fd5b505afa158015610deb573d6000803e3d6000fd5b505050506040513d6020811015610e0157600080fd5b50519050610e1e816001600160701b03861663ffffffff61249c16565b9150505b60008111610e77576040805162461bcd60e51b815260206004820152601760248201527f5a503a20494e53554646494349454e545f414d4f554e54000000000000000000604482015290519081900360640190fd5b610eaf85610e90576000546001600160a01b0316610e9d565b6001546001600160a01b03165b6002546001600160a01b03168361270c565b600654600090600160a01b900460ff16610ec95785610ecc565b85155b9050600080610edb84896130fe565b91509150610f0d82828a8b610efb576005546001600160a01b0316610f08565b6006546001600160a01b03165b6124fa565b600254604080516321913af360e11b8152306004820152861515602482015290519299506000926001600160a01b039092169163432275e69160448082019260609290919082900301818787803b158015610f6757600080fd5b505af1158015610f7b573d6000803e3d6000fd5b505050506040513d6060811015610f9157600080fd5b5051905088610fab576005546001600160a01b0316610fb8565b6006546001600160a01b03165b6001600160a01b03166340c10f198b8a6040518363ffffffff1660e01b815260040180836001600160a01b03166001600160a01b0316815260200182815260200192505050600060405180830381600087803b15801561101757600080fd5b505af115801561102b573d6000803e3d6000fd5b5050505050505061103a612a58565b604080513381526020810184905281517f9f86f97a982e0ecb5feca735a22a513c3cec88fbd4bac2011d1e37994c5e435b929181900390910190a15050600160105550909392505050565b60006010546001146110cb576040805162461bcd60e51b815260206004820152600a60248201526916940e881313d0d2d15160b21b604482015290519081900360640190fd5b600060105560115460011461111d576040805162461bcd60e51b815260206004820152601360248201527216940e881393d5081253925512505312569151606a1b604482015290519081900360640190fd5b611125612107565b60008261113d576005546001600160a01b031661114a565b6006546001600160a01b03165b604080516370a0823160e01b815230600482015290519192506000916001600160a01b038416916370a08231916024808301926020929190829003018186803b15801561119657600080fd5b505afa1580156111aa573d6000803e3d6000fd5b505050506040513d60208110156111c057600080fd5b5051905080611216576040805162461bcd60e51b815260206004820152601660248201527f494e53554646494349454e545f4c495155494449545900000000000000000000604482015290519081900360640190fd5b6000826001600160a01b03166318160ddd6040518163ffffffff1660e01b815260040160206040518083038186803b15801561125157600080fd5b505afa158015611265573d6000803e3d6000fd5b505050506040513d602081101561127b57600080fd5b5051600254909150869086906001600160a01b031660008061129e84878961317b565b915091506112cf846112bb576000546001600160a01b03166112c8565b6001546001600160a01b03165b868361270c565b8098508682101561143457670de0b6b3a764000084156113365760006112f3610441565b506001600160701b0316915050600061130d600080612b3c565b9150611331905061132582600263ffffffff6128cd16565b83600b5460075461321e565b925050505b6000670de0b6b3a7640000611361836113558c8863ffffffff61249c16565b9063ffffffff6128cd16565b8161136857fe5b049050611380858661137b89858d61325c565b61270c565b846001600160a01b0316632ce5109088600660149054906101000a900460ff166113aa57886113ad565b88155b6040518363ffffffff1660e01b815260040180836001600160a01b03166001600160a01b031681526020018215151515815260200192505050602060405180830381600087803b15801561140057600080fd5b505af1158015611414573d6000803e3d6000fd5b505050506040513d602081101561142a57600080fd5b50519a909a019950505b60408051632770a7eb60e21b81523060048201526024810189905290516001600160a01b038a1691639dc29fac91604480830192600092919082900301818387803b15801561148257600080fd5b505af1158015611496573d6000803e3d6000fd5b50505050505050505084156114d35760075481906114ba908463ffffffff6128cd16565b816114c157fe5b600780549290910490910390556114fd565b60085481906114e8908463ffffffff6128cd16565b816114ef57fe5b600880549290910490910390555b611505612e41565b604080513381526020810186905281517fcc16f5dbb4873280815c1ee09dbd06736cffcc184412cf7a71a0fdb75d397ca5929181900390910190a1505060016010555092915050565b6103e881565b60008060105460011461159b576040805162461bcd60e51b815260206004820152600a60248201526916940e881313d0d2d15160b21b604482015290519081900360640190fd5b60006010556011546001146115ed576040805162461bcd60e51b815260206004820152601360248201527216940e881393d5081253925512505312569151606a1b604482015290519081900360640190fd5b6115f5612107565b60008361160d576005546001600160a01b031661161a565b6006546001600160a01b03165b604080516370a0823160e01b815230600482015290519192506000916001600160a01b038416916370a08231916024808301926020929190829003018186803b15801561166657600080fd5b505afa15801561167a573d6000803e3d6000fd5b505050506040513d602081101561169057600080fd5b5051604080516318160ddd60e01b815290519192506000916001600160a01b038516916318160ddd916004808301926020929190829003018186803b1580156116d857600080fd5b505afa1580156116ec573d6000803e3d6000fd5b505050506040513d602081101561170257600080fd5b50519050816117425760405162461bcd60e51b8152600401808060200182810382526021815260200180613c706021913960400191505060405180910390fd5b670de0b6b3a7640000600080611756610441565b506001600160701b031691506001600160701b0316915060008061177b600080612b3c565b9150915060008b6117e0576117c185670de0b6b3a76400006117ad600b546113556002896128cd90919063ffffffff16565b816117b457fe5b049063ffffffff6134c416565b6117d1888763ffffffff6128cd16565b816117d857fe5b0487036117fe565b6007546117f3888663ffffffff6128cd16565b816117fa57fe5b0487035b9050808810611854576040805162461bcd60e51b815260206004820152601d60248201527f5a503a204578636565646564204275726e204173796e63206c696d6974000000604482015290519081900360640190fd5b508a1561187e5761187b61186f82600263ffffffff6128cd16565b84600b5460075461321e565b94505b505050506000670de0b6b3a76400006118a083866128cd90919063ffffffff16565b816118a757fe5b04905060006118b789838661325c565b6002549091506118d1906001600160a01b0316808361270c565b600254604080517f89afcb440000000000000000000000000000000000000000000000000000000081526001600160a01b038d81166004830152825160009485949216926389afcb4492602480830193919282900301818787803b15801561193857600080fd5b505af115801561194c573d6000803e3d6000fd5b505050506040513d604081101561196257600080fd5b5080516020909101516006549193509150600160a01b900460ff166119875780611989565b815b600654909a50600160a01b900460ff166119a357816119a5565b805b98508a156119db5760075486906119c2908963ffffffff6128cd16565b816119c957fe5b60078054929091049091039055611a05565b60085486906119f0908963ffffffff6128cd16565b816119f757fe5b600880549290910490910390555b60408051632770a7eb60e21b81523060048201526024810189905290516001600160a01b038a1691639dc29fac91604480830192600092919082900301818387803b158015611a5357600080fd5b505af1158015611a67573d6000803e3d6000fd5b50505050611a73612e41565b60408051338152602081018c90528082018b905290517fb83dbb1f0386f1b6d6f534f325d617e3f96f2971cca29021702094328c1cb70c9181900360600190a1505050505050505060016010819055509250929050565b601054600114611b0e576040805162461bcd60e51b815260206004820152600a60248201526916940e881313d0d2d15160b21b604482015290519081900360640190fd5b60006010556003546001600160a01b03163314611b72576040805162461bcd60e51b815260206004820152601160248201527f5a6972636f6e3a20464f5242494444454e000000000000000000000000000000604482015290519081900360640190fd5b600580546001600160a01b0380891673ffffffffffffffffffffffffffffffffffffffff19928316179092556006805488841690831617905560028054858416921682179055604080517f0dfe1681000000000000000000000000000000000000000000000000000000008152905192871692630dfe168191600481810192602092909190829003018186803b158015611c0b57600080fd5b505afa158015611c1f573d6000803e3d6000fd5b505050506040513d6020811015611c3557600080fd5b5051600680547fffffffffffffffffffffff00ffffffffffffffffffffffffffffffffffffffff166001600160a01b0392831693909314600160a01b029290921790915560408051808201825286831680825286841660209283018190526000805473ffffffffffffffffffffffffffffffffffffffff19908116909317905560018054831690911790556004805490911685851617815560035483517fa3ad52b8000000000000000000000000000000000000000000000000000000008152935194169363a3ad52b893808301939290829003018186803b158015611d1a57600080fd5b505afa158015611d2e573d6000803e3d6000fd5b505050506040513d6020811015611d4457600080fd5b5051600955600354604080517f79186af000000000000000000000000000000000000000000000000000000000815290516001600160a01b03909216916379186af091600480820192602092909190829003018186803b158015611da757600080fd5b505afa158015611dbb573d6000803e3d6000fd5b505050506040513d6020811015611dd157600080fd5b5051600a555050600160105550505050565b600d5481565b600080601054600114611e30576040805162461bcd60e51b815260206004820152600a60248201526916940e881313d0d2d15160b21b604482015290519081900360640190fd5b600060105560115415611e8a576040805162461bcd60e51b815260206004820152601360248201527f416c726561647920496e697469616c697a656400000000000000000000000000604482015290519081900360640190fd5b60008054604080516370a0823160e01b815230600482015290516001600160a01b03909216916370a0823191602480820192602092909190829003018186803b158015611ed657600080fd5b505afa158015611eea573d6000803e3d6000fd5b505050506040513d6020811015611f0057600080fd5b5051600154604080516370a0823160e01b815230600482015290519293506000926001600160a01b03909216916370a0823191602480820192602092909190829003018186803b158015611f5357600080fd5b505afa158015611f67573d6000803e3d6000fd5b505050506040513d6020811015611f7d57600080fd5b505190508115801590611f905750600081115b611fe1576040805162461bcd60e51b815260206004820152601860248201527f5a503a204e6f7420656e6f756768206c69717569646974790000000000000000604482015290519081900360640190fd5b600080611fec61351c565b6008869055600785905590925090506001600160701b0382161580159061201c57506000816001600160701b0316115b15612088576000816001600160701b031661204b846001600160701b03166007546128cd90919063ffffffff16565b8161205257fe5b04905061206a816008546134c490919063ffffffff16565b600854670de0b6b3a7640000028161207e57fe5b04600b5550612095565b6706f05b59d3b20000600b555b6006546120bd9084906000906001600160701b038516906001600160a01b03168b6001612b81565b6005549095506120e79085906000906001600160701b038616906001600160a01b03168b83612b81565b95506120f1612e41565b5050600160118190556010555091939092509050565b6002546001600160a01b0316331461218257600260009054906101000a90046001600160a01b03166001600160a01b03166311816b046040518163ffffffff1660e01b8152600401600060405180830381600087803b15801561216957600080fd5b505af115801561217d573d6000803e3d6000fd5b505050505b60008061218d61351c565b9150915060008061219c610441565b50909250905060006121c06001600160701b0386811690861663ffffffff6128cd16565b9050600d546000141580156121dd57506001600160701b03851615155b80156121f157506001600160701b03841615155b1561249557600254604080516318160ddd60e01b815290516000926001600160a01b0316916318160ddd916004808301926020929190829003018186803b15801561223b57600080fd5b505afa15801561224f573d6000803e3d6000fd5b505050506040513d602081101561226557600080fd5b50519050600061228f6122886001600160701b038816600263ffffffff6128cd16565b60006135e5565b905060006122b06122886001600160701b038a16600263ffffffff6128cd16565b90506000670de0b6b3a7640000905060006122fe600d546122d088613712565b02866122dd600c54613712565b02670de0b6b3a764000002816122ef57fe5b8491900463ffffffff61249c16565b90506000670de0b6b3a764000061231b868463ffffffff6128cd16565b8161232257fe5b0490506000670de0b6b3a7640000612340868563ffffffff6128cd16565b8161234757fe5b049050670de0b6b3a7640000612368600b54846128cd90919063ffffffff16565b8161236f57fe5b60078054929091049091019055600b54670de0b6b3a764000090612395908203836128cd565b8161239c57fe5b6008805492909104909101905560075460028704906123ca906001600160701b038c1663ffffffff61249c16565b10156124125760075486906123ee906001600160701b038c1663ffffffff61249c16565b670de0b6b3a764000002816123ff57fe5b04670de0b6b3a764000003600b55612446565b6008548590612430906001600160701b038d1663ffffffff61249c16565b670de0b6b3a7640000028161244157fe5b04600b555b600754600854600b5460408051938452602084019290925282820152517f54964c70825f65946c2e16cd62d98784e0536cf3d54b15ce1845f37f325945d29181900360600190a1505050505050505b5050505050565b808203828111156124f4576040805162461bcd60e51b815260206004820152601560248201527f64732d6d6174682d7375622d756e646572666c6f770000000000000000000000604482015290519081900360640190fd5b92915050565b600080600061250761351c565b91509150600080612516610441565b5091509150861561261557600061256f856001600160701b03166125516002611355886001600160701b03168f6128cd90919063ffffffff16565b8161255857fe5b0461256a8b600263ffffffff6128cd16565b613764565b90506126048882896001600160a01b03166318160ddd6040518163ffffffff1660e01b815260040160206040518083038186803b1580156125af57600080fd5b505afa1580156125c3573d6000803e3d6000fd5b505050506040513d60208110156125d957600080fd5b50516125ef6001600160701b03891660006135e5565b866001600160701b0316600b5460075461377c565b600780549092019091559450612700565b600061265e846001600160701b03166126456002611355896001600160701b03168e6128cd90919063ffffffff16565b8161264c57fe5b0461256a8c600263ffffffff6128cd16565b90506126f38882896001600160a01b03166318160ddd6040518163ffffffff1660e01b815260040160206040518083038186803b15801561269e57600080fd5b505afa1580156126b2573d6000803e3d6000fd5b505050506040513d60208110156126c857600080fd5b50516126de6001600160701b038a1660006135e5565b876001600160701b0316600b5460075461377c565b6008805490920190915594505b50505050949350505050565b604080518082018252601981527f7472616e7366657228616464726573732c75696e74323536290000000000000060209182015281516001600160a01b0385811660248301526044808301869052845180840390910181526064909201845291810180517bffffffffffffffffffffffffffffffffffffffffffffffffffffffff167fa9059cbb000000000000000000000000000000000000000000000000000000001781529251815160009460609489169392918291908083835b602083106127e75780518252601f1990920191602091820191016127c8565b6001836020036101000a0380198251168184511680821785525050505050509050019150506000604051808303816000865af19150503d8060008114612849576040519150601f19603f3d011682016040523d82523d6000602084013e61284e565b606091505b509150915081801561287c57508051158061287c575080806020019051602081101561287957600080fd5b50515b612495576040805162461bcd60e51b815260206004820152601d60248201527f5a6972636f6e2050796c6f6e3a205452414e534645525f4641494c4544000000604482015290519081900360640190fd5b60008115806128e8575050808202828282816128e557fe5b04145b6124f4576040805162461bcd60e51b815260206004820152601460248201527f64732d6d6174682d6d756c2d6f766572666c6f77000000000000000000000000604482015290519081900360640190fd5b60048054604080517f017e7e58000000000000000000000000000000000000000000000000000000008152905160009384936001600160a01b03169263017e7e589281830192602092829003018186803b15801561299657600080fd5b505afa1580156129aa573d6000803e3d6000fd5b505050506040513d60208110156129c057600080fd5b50516001600160a01b0381161580159350909150612a5157826001600160a01b03166340c10f1982866040518363ffffffff1660e01b815260040180836001600160a01b03166001600160a01b0316815260200182815260200192505050600060405180830381600087803b158015612a3857600080fd5b505af1158015612a4c573d6000803e3d6000fd5b505050505b5092915050565b600080612a6361351c565b9150915060006401000000004281612a7757fe5b06905080600e601c6101000a81548163ffffffff021916908363ffffffff160217905550600260009054906101000a90046001600160a01b03166001600160a01b03166318160ddd6040518163ffffffff1660e01b815260040160206040518083038186803b158015612ae957600080fd5b505afa158015612afd573d6000803e3d6000fd5b505050506040513d6020811015612b1357600080fd5b5051600d55612b346001600160701b0384811690841663ffffffff6128cd16565b600c55505050565b600080600080612b4a61351c565b91509150612b61826001600160701b0316876135e5565b9350612b76816001600160701b0316866135e5565b925050509250929050565b6000808711612bd7576040805162461bcd60e51b815260206004820152601860248201527f5a503a204e6f7420456e6f756768204c69717569646974790000000000000000604482015290519081900360640190fd5b6000846001600160a01b03166318160ddd6040518163ffffffff1660e01b815260040160206040518083038186803b158015612c1257600080fd5b505afa158015612c26573d6000803e3d6000fd5b505050506040513d6020811015612c3c57600080fd5b5051600b546007549192509082612d3657604080517f40c10f190000000000000000000000000000000000000000000000000000000081526000600482018190526103e8602483015291516001600160a01b038a16926340c10f19926044808201939182900301818387803b158015612cb457600080fd5b505af1158015612cc8573d6000803e3d6000fd5b505050508415612ceb57612ce48a6103e863ffffffff61249c16565b9350612d31565b612d2e6103e8612d0284600263ffffffff6128cd16565b612d1a8d670de0b6b3a764000063ffffffff6128cd16565b81612d2157fe5b049063ffffffff61249c16565b93505b612d48565b612d45858b858b8d878761377c565b93505b505060006064612d63600a54856128cd90919063ffffffff16565b81612d6a57fe5b049050612d778187612939565b15612d825780830392505b856001600160a01b03166340c10f1986856040518363ffffffff1660e01b815260040180836001600160a01b03166001600160a01b0316815260200182815260200192505050600060405180830381600087803b158015612de257600080fd5b505af1158015612df6573d6000803e3d6000fd5b505060408051338152602081018d905281517f55dc8382f156a78fd3327279c3abe1bc01ecaeb76e18952613611eabe0df97279450908190039091019150a150509695505050505050565b60008054604080516370a0823160e01b815230600482015290516001600160a01b03909216916370a0823191602480820192602092909190829003018186803b158015612e8d57600080fd5b505afa158015612ea1573d6000803e3d6000fd5b505050506040513d6020811015612eb757600080fd5b5051600154604080516370a0823160e01b815230600482015290519293506000926001600160a01b03909216916370a0823191602480820192602092909190829003018186803b158015612f0a57600080fd5b505afa158015612f1e573d6000803e3d6000fd5b505050506040513d6020811015612f3457600080fd5b50519050600080612f458484612b3c565b9150915060006064612f62600954856128cd90919063ffffffff16565b81612f6957fe5b04905060006064612f85600954856128cd90919063ffffffff16565b81612f8c57fe5b04905060026001600160701b038316046001600160701b031686118015612fc7575060026001600160701b038216046001600160701b031685115b156130e2576000806130158686612ffc60026001600160701b0389165b8d916001600160701b0391041663ffffffff61249c16565b61301060026001600160701b038916612fe4565b613811565b915091508160001461303e5760005460025461303e916001600160a01b0390811691168461270c565b801561306157600154600254613061916001600160a01b0390811691168361270c565b600254604080516335313c2160e11b815230600482015290516001600160a01b0390921691636a627842916024808201926020929091908290030181600087803b1580156130ae57600080fd5b505af11580156130c2573d6000803e3d6000fd5b505050506040513d60208110156130d857600080fd5b5050960395909403935b6130ee8686848461386c565b6130f6612a58565b505050505050565b60008060008061310c61351c565b91509150841561313b5761313660028704826001600160701b0316846001600160701b0316613b2d565b613140565b600286045b93508461316c5761316760028704836001600160701b0316836001600160701b0316613b2d565b612b76565b60028604925050509250929050565b600b54600754600091829182806131928180612b3c565b915091506000806131a1610441565b509150915060008b6131b357826131b5565b815b6001600160701b0316905060008c6131cd57856131e1565b600e54600160701b90046001600160701b03165b90506131f28d838e84868d8d61377c565b995061320c8d6132028c8e613764565b8e84868d8d613c1d565b98505050505050505050935093915050565b6000613230828563ffffffff61249c16565b61324b670de0b6b3a76400008590038763ffffffff6128cd16565b8161325257fe5b0495945050505050565b600080600061326c600180612b3c565b9150915060008061327b610441565b5091509150600088156133905761329984600263ffffffff6128cd16565b60075461333c906132b9906001600160701b03861663ffffffff61249c16565b600254604080516370a0823160e01b815230600482015290516001600160a01b03909216916370a0823191602480820192602092909190829003018186803b15801561330457600080fd5b505afa158015613318573d6000803e3d6000fd5b505050506040513d602081101561332e57600080fd5b50519063ffffffff6128cd16565b8161334357fe5b04905061338961335a85600263ffffffff6128cd16565b613373836001600160701b03861663ffffffff6128cd16565b8161337a57fe5b8391900463ffffffff6134c416565b905061345e565b600254604080516370a0823160e01b81523060048201529051670de0b6b3a764000092613424926001600160a01b03909116916370a0823191602480820192602092909190829003018186803b1580156133e957600080fd5b505afa1580156133fd573d6000803e3d6000fd5b505050506040513d602081101561341357600080fd5b5051600b549063ffffffff6128cd16565b8161342b57fe5b04905061345b61344286600263ffffffff6128cd16565b613373836001600160701b03871663ffffffff6128cd16565b90505b8661346f898363ffffffff6128cd16565b8161347657fe5b049550600086116134b85760405162461bcd60e51b8152600401808060200182810382526021815260200180613cda6021913960400191505060405180910390fd5b50505050509392505050565b808201828110156124f4576040805162461bcd60e51b815260206004820152601460248201527f64732d6d6174682d6164642d6f766572666c6f77000000000000000000000000604482015290519081900360640190fd5b600080600080600260009054906101000a90046001600160a01b03166001600160a01b0316630902f1ac6040518163ffffffff1660e01b815260040160606040518083038186803b15801561357057600080fd5b505afa158015613584573d6000803e3d6000fd5b505050506040513d606081101561359a57600080fd5b5080516020909101516006549193509150600160a01b900460ff166135bf57806135c1565b815b600654909450600160a01b900460ff166135db57816135dd565b805b925050509091565b600254604080516370a0823160e01b8152306004820152905160009283926001600160a01b03909116916370a0823191602480820192602092909190829003018186803b15801561363557600080fd5b505afa158015613649573d6000803e3d6000fd5b505050506040513d602081101561365f57600080fd5b5051600254604080516318160ddd60e01b815290519293506000926001600160a01b03909216916318160ddd91600480820192602092909190829003018186803b1580156136ac57600080fd5b505afa1580156136c0573d6000803e3d6000fd5b505050506040513d60208110156136d657600080fd5b505190508015806136e5575081155b61370757806136fa868463ffffffff6128cd16565b8161370157fe5b04613709565b835b95945050505050565b60006003821115613755575080600160028204015b8181101561374f5780915060028182858161373e57fe5b04018161374757fe5b049050613727565b5061375f565b811561375f575060015b919050565b60008183106137735781613775565b825b9392505050565b600087156137a45781613795888863ffffffff6128cd16565b8161379c57fe5b049050613806565b60006137b6888863ffffffff6128cd16565b90506000670de0b6b3a76400006137d860026113558a8963ffffffff6128cd16565b816137df57fe5b04905060006137f4878363ffffffff6134c416565b90508083816137ff57fe5b0493505050505b979650505050505050565b6000808085613826888663ffffffff6128cd16565b8161382d57fe5b0490508481111561385b578492508661384c848863ffffffff6128cd16565b8161385357fe5b049150613862565b8092508391505b5094509492505050565b83826001600160701b0316101561396f576000546002546138bb916001600160a01b0390811691166138ad876001600160701b03871663ffffffff61249c16565b6001600160701b031661270c565b600254600654604080516321913af360e11b8152306004820152600160a01b90920460ff1615156024830152516001600160a01b039092169163432275e6916044808201926060929091908290030181600087803b15801561391c57600080fd5b505af1158015613930573d6000803e3d6000fd5b505050506040513d606081101561394657600080fd5b5050600e80546dffffffffffffffffffffffffffff19166001600160701b038416179055613992565b600e80546dffffffffffffffffffffffffffff19166001600160701b0386161790555b82816001600160701b03161015613a9d576001546002546139d3916001600160a01b0390811691166138ad866001600160701b03861663ffffffff61249c16565b600254600654604080516321913af360e11b8152306004820152600160a01b90920460ff16156024830152516001600160a01b039092169163432275e6916044808201926060929091908290030181600087803b158015613a3357600080fd5b505af1158015613a47573d6000803e3d6000fd5b505050506040513d6060811015613a5d57600080fd5b5050600e80547fffffffff0000000000000000000000000000ffffffffffffffffffffffffffff16600160701b6001600160701b03841602179055613ad7565b600e80547fffffffff0000000000000000000000000000ffffffffffffffffffffffffffff16600160701b6001600160701b038616021790555b600e54604080516001600160701b038084168252600160701b909304909216602083015280517f1d96001f313f6446e46c7776b79d231589555627a46fa2388f3220937fc79e519281900390910190a150505050565b6000808411613b6d5760405162461bcd60e51b815260040180806020018281038252602b815260200180613cfb602b913960400191505060405180910390fd5b600083118015613b7d5750600082115b613bb85760405162461bcd60e51b8152600401808060200182810382526028815260200180613cb26028913960400191505060405180910390fd5b6000613bcc856103e563ffffffff6128cd16565b90506000613be0828563ffffffff6128cd16565b90506000613c0683613bfa886103e863ffffffff6128cd16565b9063ffffffff6134c416565b9050808281613c1157fe5b04979650505050505050565b60008715613c365785613795838963ffffffff6128cd16565b85613c5b8861135587670de0b6b3a76400006117ad6002848d8c63ffffffff6128cd16565b81613c6257fe5b049897505050505050505056fe5a503a204e6f7420656e6f756768206c697175696469747920696e7365727465645a6972636f6e50796c6f6e3a204e6f7420456e6f756768204c6971756964697479556e697377617056324c6962726172793a20494e53554646494349454e545f4c49515549444954595a503a20494e53554646494349454e545f4c49515549444954595f4255524e4544556e697377617056324c6962726172793a20494e53554646494349454e545f494e5055545f414d4f554e54a265627a7a72315820bc5d0fa335fa918d81f3d0fa86a3326a8799bb0c9993dc6115007846339d942564736f6c634300051000326080604052600160095534801561001557600080fd5b506040514690806052610f5d823960408051918290036052018220828201825260068352652d34b931b7b760d11b6020938401528151808301835260018152603160f81b908401528151808401919091527f94c6df7cbb14f58e7ac6d9fa315f8346b33ef43dae2423c0e0e94673dd9e65ff818301527fc89efdaa54c0f20c7adf612882df0950f5a951637e0307cdcb4c672f298b8bc6606082015260808101949094523060a0808601919091528151808603909101815260c09094019052825192019190912060045550600780546001600160a01b03191633179055610e5c806101016000396000f3fe608060405234801561001057600080fd5b50600436106101775760003560e01c80637ecebe00116100d8578063b89f59ea1161008c578063dd62ed3e11610066578063dd62ed3e1461041e578063fc0c546a1461044c578063fecf97341461045457610177565b8063b89f59ea146103bd578063c45a0155146103c5578063d505accf146103cd57610177565b80639dc29fac116100bd5780639dc29fac1461035d578063a8aa1b3114610389578063a9059cbb1461039157610177565b80637ecebe001461032f57806395d89b411461035557610177565b8063313ce5671161012f57806340c10f191161011457806340c10f19146102b757806346847794146102e557806370a082311461030957610177565b8063313ce567146102915780633644e515146102af57610177565b806318160ddd1161016057806318160ddd1461023957806323b872dd1461025357806330adf81f1461028957610177565b806306fdde031461017c578063095ea7b3146101f9575b600080fd5b610184610492565b6040805160208082528351818301528351919283929083019185019080838360005b838110156101be5781810151838201526020016101a6565b50505050905090810190601f1680156101eb5780820380516001836020036101000a031916815260200191505b509250505060405180910390f35b6102256004803603604081101561020f57600080fd5b506001600160a01b0381351690602001356104cb565b604080519115158252519081900360200190f35b6102416104e2565b60408051918252519081900360200190f35b6102256004803603606081101561026957600080fd5b506001600160a01b038135811691602081013590911690604001356104e8565b610241610582565b6102996105a6565b6040805160ff9092168252519081900360200190f35b6102416105ab565b6102e3600480360360408110156102cd57600080fd5b506001600160a01b0381351690602001356105b1565b005b6102ed61067f565b604080516001600160a01b039092168252519081900360200190f35b6102416004803603602081101561031f57600080fd5b50356001600160a01b031661068e565b6102416004803603602081101561034557600080fd5b50356001600160a01b03166106a0565b6101846106b2565b6102e36004803603604081101561037357600080fd5b506001600160a01b0381351690602001356106eb565b6102ed6107b0565b610225600480360360408110156103a757600080fd5b506001600160a01b0381351690602001356107bf565b6102256107cc565b6102ed6107dc565b6102e3600480360360e08110156103e357600080fd5b506001600160a01b03813581169160208101359091169060408101359060608101359060ff6080820135169060a08101359060c001356107eb565b6102416004803603604081101561043457600080fd5b506001600160a01b0381358116916020013516610a13565b6102ed610a30565b6102e36004803603608081101561046a57600080fd5b506001600160a01b038135811691602081013582169160408201351690606001351515610a3f565b6040518060400160405280600681526020017f5a6972636f6e000000000000000000000000000000000000000000000000000081525081565b60006104d8338484610b27565b5060015b92915050565b60005481565b6001600160a01b03831660009081526002602090815260408083203384529091528120546000191461056d576001600160a01b0384166000908152600260209081526040808320338452909152902054610548908363ffffffff610b8916565b6001600160a01b03851660009081526002602090815260408083203384529091529020555b610578848484610be1565b5060019392505050565b7f6e71edae12b1b97f4d1f60370fef10105fa2faae0126114a169c64845d6126c981565b601281565b60045481565b600954600114610608576040805162461bcd60e51b815260206004820152601160248201527f556e697377617056323a204c4f434b4544000000000000000000000000000000604482015290519081900360640190fd5b60006009556008546001600160a01b0316331461066c576040805162461bcd60e51b815260206004820152601a60248201527f5a6972636f6e506f6f6c546f6b656e3a20464f5242494444454e000000000000604482015290519081900360640190fd5b6106768282610c9b565b50506001600955565b6008546001600160a01b031681565b60016020526000908152604090205481565b60036020526000908152604090205481565b6040518060400160405280600381526020017f5a5054000000000000000000000000000000000000000000000000000000000081525081565b600954600114610742576040805162461bcd60e51b815260206004820152601160248201527f556e697377617056323a204c4f434b4544000000000000000000000000000000604482015290519081900360640190fd5b60006009556008546001600160a01b031633146107a6576040805162461bcd60e51b815260206004820152601a60248201527f5a6972636f6e506f6f6c546f6b656e3a20464f5242494444454e000000000000604482015290519081900360640190fd5b6106768282610d31565b6006546001600160a01b031681565b60006104d8338484610be1565b600654600160a01b900460ff1681565b6007546001600160a01b031681565b42841015610840576040805162461bcd60e51b815260206004820152601260248201527f556e697377617056323a20455850495245440000000000000000000000000000604482015290519081900360640190fd5b6004546001600160a01b0380891660008181526003602090815260408083208054600180820190925582517f6e71edae12b1b97f4d1f60370fef10105fa2faae0126114a169c64845d6126c98186015280840196909652958d166060860152608085018c905260a085019590955260c08085018b90528151808603909101815260e0850182528051908301207f19010000000000000000000000000000000000000000000000000000000000006101008601526101028501969096526101228085019690965280518085039096018652610142840180825286519683019690962095839052610162840180825286905260ff89166101828501526101a284018890526101c28401879052519193926101e280820193601f1981019281900390910190855afa158015610976573d6000803e3d6000fd5b5050604051601f1901519150506001600160a01b038116158015906109ac5750886001600160a01b0316816001600160a01b0316145b6109fd576040805162461bcd60e51b815260206004820152601c60248201527f556e697377617056323a20494e56414c49445f5349474e415455524500000000604482015290519081900360640190fd5b610a08898989610b27565b505050505050505050565b600260209081526000928352604080842090915290825290205481565b6005546001600160a01b031681565b6007546001600160a01b03163314610a9e576040805162461bcd60e51b815260206004820152601a60248201527f5a6972636f6e506f6f6c546f6b656e3a20464f5242494444454e000000000000604482015290519081900360640190fd5b600580546001600160a01b039586167fffffffffffffffffffffffff00000000000000000000000000000000000000009182161790915560068054921515600160a01b027fffffffffffffffffffffff00ffffffffffffffffffffffffffffffffffffffff95871693831693909317949094169190911790925560088054919093169116179055565b6001600160a01b03808416600081815260026020908152604080832094871680845294825291829020859055815185815291517f8c5be1e5ebec7d5bd14f71427d1e84f3dd0314c0f7b2291e5b200ac8c7c3b9259281900390910190a3505050565b808203828111156104dc576040805162461bcd60e51b815260206004820152601560248201527f64732d6d6174682d7375622d756e646572666c6f770000000000000000000000604482015290519081900360640190fd5b6001600160a01b038316600090815260016020526040902054610c0a908263ffffffff610b8916565b6001600160a01b038085166000908152600160205260408082209390935590841681522054610c3f908263ffffffff610dcf16565b6001600160a01b0380841660008181526001602090815260409182902094909455805185815290519193928716927fddf252ad1be2c89b69c2b068fc378daa952ba7f163c4a11628f55a4df523b3ef92918290030190a3505050565b600054610cae908263ffffffff610dcf16565b60009081556001600160a01b038316815260016020526040902054610cd9908263ffffffff610dcf16565b6001600160a01b03831660008181526001602090815260408083209490945583518581529351929391927fddf252ad1be2c89b69c2b068fc378daa952ba7f163c4a11628f55a4df523b3ef9281900390910190a35050565b6001600160a01b038216600090815260016020526040902054610d5a908263ffffffff610b8916565b6001600160a01b03831660009081526001602052604081209190915554610d87908263ffffffff610b8916565b60009081556040805183815290516001600160a01b038516917fddf252ad1be2c89b69c2b068fc378daa952ba7f163c4a11628f55a4df523b3ef919081900360200190a35050565b808201828110156104dc576040805162461bcd60e51b815260206004820152601460248201527f64732d6d6174682d6164642d6f766572666c6f77000000000000000000000000604482015290519081900360640190fdfea265627a7a72315820c312f4df8af51104446ec010caa0b8cb8766c51182fe8660ec10ef99b3bed58164736f6c63430005100032454950373132446f6d61696e28737472696e67206e616d652c737472696e672076657273696f6e2c75696e7432353620636861696e49642c6164647265737320766572696679696e67436f6e747261637429a265627a7a72315820a3f5b589e516d1cc7c033abfe3b24af51397747e9b755f5b3c23137b81270e4664736f6c63430005100032",
  "linkReferences": {},
  "deployedLinkReferences": {}
}