{
  "_format": "hh-sol-artifact-1",
  "contractName": "ZirconPylon",
  "sourceName": "contracts/core/ZirconPylon.sol",
  "abi": [
    {
      "inputs": [],
      "payable": false,
      "stateMutability": "nonpayable",
      "type": "constructor"
    },
    {
      "anonymous": false,
      "inputs": [
        {
          "indexed": false,
          "internalType": "address",
          "name": "sender",
          "type": "address"
        },
        {
          "indexed": false,
          "internalType": "uint256",
          "name": "aIn0",
          "type": "uint256"
        },
        {
          "indexed": false,
          "internalType": "bool",
          "name": "isAnchor",
          "type": "bool"
        }
      ],
      "name": "Burn",
      "type": "event"
    },
    {
      "anonymous": false,
      "inputs": [
        {
          "indexed": false,
          "internalType": "address",
          "name": "sender",
          "type": "address"
        },
        {
          "indexed": false,
          "internalType": "uint256",
          "name": "aIn0",
          "type": "uint256"
        },
        {
          "indexed": false,
          "internalType": "uint256",
          "name": "aIn1",
          "type": "uint256"
        }
      ],
      "name": "BurnAsync",
      "type": "event"
    },
    {
      "anonymous": false,
      "inputs": [
        {
          "indexed": false,
          "internalType": "uint256",
          "name": "aIn0",
          "type": "uint256"
        },
        {
          "indexed": false,
          "internalType": "bool",
          "name": "isAnchor",
          "type": "bool"
        }
      ],
      "name": "Excess",
      "type": "event"
    },
    {
      "anonymous": false,
      "inputs": [
        {
          "indexed": false,
          "internalType": "address",
          "name": "sender",
          "type": "address"
        },
        {
          "indexed": false,
          "internalType": "uint256",
          "name": "aIn0",
          "type": "uint256"
        },
        {
          "indexed": false,
          "internalType": "uint256",
          "name": "aIn1",
          "type": "uint256"
        }
      ],
      "name": "MintAsync",
      "type": "event"
    },
    {
      "anonymous": false,
      "inputs": [
        {
          "indexed": false,
          "internalType": "address",
          "name": "sender",
          "type": "address"
        },
        {
          "indexed": false,
          "internalType": "uint256",
          "name": "aIn0",
          "type": "uint256"
        },
        {
          "indexed": false,
          "internalType": "bool",
          "name": "isAnchor",
          "type": "bool"
        }
      ],
      "name": "MintAsync100",
      "type": "event"
    },
    {
      "anonymous": false,
      "inputs": [
        {
          "indexed": false,
          "internalType": "address",
          "name": "sender",
          "type": "address"
        },
        {
          "indexed": false,
          "internalType": "uint256",
          "name": "aIn0",
          "type": "uint256"
        },
        {
          "indexed": false,
          "internalType": "bool",
          "name": "isAnchor",
          "type": "bool"
        }
      ],
      "name": "MintSync",
      "type": "event"
    },
    {
      "anonymous": false,
      "inputs": [
        {
          "indexed": false,
          "internalType": "uint256",
          "name": "_vab",
          "type": "uint256"
        },
        {
          "indexed": false,
          "internalType": "uint256",
          "name": "_vfb",
          "type": "uint256"
        },
        {
          "indexed": false,
          "internalType": "uint256",
          "name": "_gamma",
          "type": "uint256"
        }
      ],
      "name": "PylonSync",
      "type": "event"
    },
    {
      "anonymous": false,
      "inputs": [
        {
          "indexed": false,
          "internalType": "uint256",
          "name": "_reserve0",
          "type": "uint256"
        },
        {
          "indexed": false,
          "internalType": "uint256",
          "name": "_reserve1",
          "type": "uint256"
        }
      ],
      "name": "PylonUpdate",
      "type": "event"
    },
    {
      "constant": true,
      "inputs": [],
      "name": "MINIMUM_LIQUIDITY",
      "outputs": [
        {
          "internalType": "uint256",
          "name": "",
          "type": "uint256"
        }
      ],
      "payable": false,
      "stateMutability": "view",
      "type": "function"
    },
    {
      "constant": true,
      "inputs": [],
      "name": "anchorPoolTokenAddress",
      "outputs": [
        {
          "internalType": "address",
          "name": "",
          "type": "address"
        }
      ],
      "payable": false,
      "stateMutability": "view",
      "type": "function"
    },
    {
      "constant": false,
      "inputs": [
        {
          "internalType": "address",
          "name": "_to",
          "type": "address"
        },
        {
          "internalType": "bool",
          "name": "_isAnchor",
          "type": "bool"
        }
      ],
      "name": "burn",
      "outputs": [
        {
          "internalType": "uint256",
          "name": "amount",
          "type": "uint256"
        }
      ],
      "payable": false,
      "stateMutability": "nonpayable",
      "type": "function"
    },
    {
      "constant": false,
      "inputs": [
        {
          "internalType": "address",
          "name": "_to",
          "type": "address"
        },
        {
          "internalType": "bool",
          "name": "_isAnchor",
          "type": "bool"
        }
      ],
      "name": "burnAsync",
      "outputs": [
        {
          "internalType": "uint256",
          "name": "amount0",
          "type": "uint256"
        },
        {
          "internalType": "uint256",
          "name": "amount1",
          "type": "uint256"
        }
      ],
      "payable": false,
      "stateMutability": "nonpayable",
      "type": "function"
    },
    {
      "constant": true,
      "inputs": [],
      "name": "dynamicFeePercentage",
      "outputs": [
        {
          "internalType": "uint256",
          "name": "",
          "type": "uint256"
        }
      ],
      "payable": false,
      "stateMutability": "view",
      "type": "function"
    },
    {
      "constant": true,
      "inputs": [],
      "name": "factoryAddress",
      "outputs": [
        {
          "internalType": "address",
          "name": "",
          "type": "address"
        }
      ],
      "payable": false,
      "stateMutability": "view",
      "type": "function"
    },
    {
      "constant": true,
      "inputs": [],
      "name": "floatPoolTokenAddress",
      "outputs": [
        {
          "internalType": "address",
          "name": "",
          "type": "address"
        }
      ],
      "payable": false,
      "stateMutability": "view",
      "type": "function"
    },
    {
      "constant": true,
      "inputs": [],
      "name": "gammaMulDecimals",
      "outputs": [
        {
          "internalType": "uint256",
          "name": "",
          "type": "uint256"
        }
      ],
      "payable": false,
      "stateMutability": "view",
      "type": "function"
    },
    {
      "constant": true,
      "inputs": [],
      "name": "getSyncReserves",
      "outputs": [
        {
          "internalType": "uint112",
          "name": "_reserve0",
          "type": "uint112"
        },
        {
          "internalType": "uint112",
          "name": "_reserve1",
          "type": "uint112"
        },
        {
          "internalType": "uint32",
          "name": "_blockTimestampLast",
          "type": "uint32"
        }
      ],
      "payable": false,
      "stateMutability": "view",
      "type": "function"
    },
    {
      "constant": false,
      "inputs": [
        {
          "internalType": "address",
          "name": "_to",
          "type": "address"
        }
      ],
      "name": "initPylon",
      "outputs": [
        {
          "internalType": "uint256",
          "name": "floatLiquidity",
          "type": "uint256"
        },
        {
          "internalType": "uint256",
          "name": "anchorLiquidity",
          "type": "uint256"
        }
      ],
      "payable": false,
      "stateMutability": "nonpayable",
      "type": "function"
    },
    {
      "constant": false,
      "inputs": [
        {
          "internalType": "address",
          "name": "_floatPoolTokenAddress",
          "type": "address"
        },
        {
          "internalType": "address",
          "name": "_anchorPoolTokenAddress",
          "type": "address"
        },
        {
          "internalType": "address",
          "name": "_floatToken",
          "type": "address"
        },
        {
          "internalType": "address",
          "name": "_anchorToken",
          "type": "address"
        },
        {
          "internalType": "address",
          "name": "_pairAddress",
          "type": "address"
        },
        {
          "internalType": "address",
          "name": "_pairFactoryAddress",
          "type": "address"
        }
      ],
      "name": "initialize",
      "outputs": [],
      "payable": false,
      "stateMutability": "nonpayable",
      "type": "function"
    },
    {
      "constant": true,
      "inputs": [],
      "name": "initialized",
      "outputs": [
        {
          "internalType": "uint256",
          "name": "",
          "type": "uint256"
        }
      ],
      "payable": false,
      "stateMutability": "view",
      "type": "function"
    },
    {
      "constant": true,
      "inputs": [],
      "name": "isFloatReserve0",
      "outputs": [
        {
          "internalType": "bool",
          "name": "",
          "type": "bool"
        }
      ],
      "payable": false,
      "stateMutability": "view",
      "type": "function"
    },
    {
      "constant": true,
      "inputs": [],
      "name": "lastK",
      "outputs": [
        {
          "internalType": "uint256",
          "name": "",
          "type": "uint256"
        }
      ],
      "payable": false,
      "stateMutability": "view",
      "type": "function"
    },
    {
      "constant": true,
      "inputs": [],
      "name": "lastPoolTokens",
      "outputs": [
        {
          "internalType": "uint256",
          "name": "",
          "type": "uint256"
        }
      ],
      "payable": false,
      "stateMutability": "view",
      "type": "function"
    },
    {
      "constant": true,
      "inputs": [],
      "name": "maximumPercentageSync",
      "outputs": [
        {
          "internalType": "uint256",
          "name": "",
          "type": "uint256"
        }
      ],
      "payable": false,
      "stateMutability": "view",
      "type": "function"
    },
    {
      "constant": false,
      "inputs": [
        {
          "internalType": "address",
          "name": "to",
          "type": "address"
        },
        {
          "internalType": "bool",
          "name": "shouldMintAnchor",
          "type": "bool"
        }
      ],
      "name": "mintAsync",
      "outputs": [
        {
          "internalType": "uint256",
          "name": "liquidity",
          "type": "uint256"
        }
      ],
      "payable": false,
      "stateMutability": "nonpayable",
      "type": "function"
    },
    {
      "constant": false,
      "inputs": [
        {
          "internalType": "address",
          "name": "to",
          "type": "address"
        },
        {
          "internalType": "bool",
          "name": "isAnchor",
          "type": "bool"
        }
      ],
      "name": "mintAsync100",
      "outputs": [
        {
          "internalType": "uint256",
          "name": "liquidity",
          "type": "uint256"
        }
      ],
      "payable": false,
      "stateMutability": "nonpayable",
      "type": "function"
    },
    {
      "constant": false,
      "inputs": [
        {
          "internalType": "address",
          "name": "_to",
          "type": "address"
        },
        {
          "internalType": "bool",
          "name": "isAnchor",
          "type": "bool"
        }
      ],
      "name": "mintPoolTokens",
      "outputs": [
        {
          "internalType": "uint256",
          "name": "liquidity",
          "type": "uint256"
        }
      ],
      "payable": false,
      "stateMutability": "nonpayable",
      "type": "function"
    },
    {
      "constant": true,
      "inputs": [],
      "name": "pairAddress",
      "outputs": [
        {
          "internalType": "address",
          "name": "",
          "type": "address"
        }
      ],
      "payable": false,
      "stateMutability": "view",
      "type": "function"
    },
    {
      "constant": true,
      "inputs": [],
      "name": "pairFactoryAddress",
      "outputs": [
        {
          "internalType": "address",
          "name": "",
          "type": "address"
        }
      ],
      "payable": false,
      "stateMutability": "view",
      "type": "function"
    },
    {
      "constant": true,
      "inputs": [],
      "name": "pylonToken",
      "outputs": [
        {
          "internalType": "address",
          "name": "float",
          "type": "address"
        },
        {
          "internalType": "address",
          "name": "anchor",
          "type": "address"
        }
      ],
      "payable": false,
      "stateMutability": "view",
      "type": "function"
    },
    {
      "constant": true,
      "inputs": [],
      "name": "virtualAnchorBalance",
      "outputs": [
        {
          "internalType": "uint256",
          "name": "",
          "type": "uint256"
        }
      ],
      "payable": false,
      "stateMutability": "view",
      "type": "function"
    },
    {
      "constant": true,
      "inputs": [],
      "name": "virtualFloatBalance",
      "outputs": [
        {
          "internalType": "uint256",
          "name": "",
          "type": "uint256"
        }
      ],
      "payable": false,
      "stateMutability": "view",
      "type": "function"
    }
  ],
  "bytecode": "0x6080604052662386f26fc10000600f556001601055600060115534801561002557600080fd5b50600380546001600160a01b03191633179055613f94806100476000396000f3fe608060405234801561001057600080fd5b50600436106101985760003560e01c806397ed64db116100e3578063ba7b3dea1161008c578063cc2a9a5b11610066578063cc2a9a5b146103b4578063e845d4e514610404578063f29401c41461040c57610198565b8063ba7b3dea14610337578063ba9a7a5614610365578063c561cf4f1461036d57610198565b8063a3ad52b8116100bd578063a3ad52b8146102f9578063a8b0898214610301578063ac9370f31461030957610198565b806397ed64db146102e15780639892c7f1146102e95780639ab9f341146102f157610198565b8063402d82c1116101455780638d470e221161011f5780638d470e221461028f5780638ffa3236146102bd578063966dae0e146102d957610198565b8063402d82c11461025157806379186af01461027f57806387d9b8531461028757610198565b8063192b65d811610176578063192b65d81461021357806322e489a41461021b57806333cdde4e1461022357610198565b806306e53aec1461019d5780630a22d5f3146101c1578063158ef93e146101f9575b600080fd5b6101a5610432565b604080516001600160a01b039092168252519081900360200190f35b6101c9610441565b604080516001600160701b03948516815292909316602083015263ffffffff168183015290519081900360600190f35b61020161046b565b60408051918252519081900360200190f35b610201610471565b6101a5610477565b6102016004803603604081101561023957600080fd5b506001600160a01b0381351690602001351515610486565b610259610953565b604080516001600160a01b03938416815291909216602082015281519081900390910190f35b610201610969565b61020161096f565b610201600480360360408110156102a557600080fd5b506001600160a01b0381351690602001351515610975565b6102c5610bf7565b604080519115158252519081900360200190f35b6101a5610c07565b610201610c16565b6101a5610c1c565b610201610c2b565b610201610c31565b6101a5610c37565b6102016004803603604081101561031f57600080fd5b506001600160a01b0381351690602001351515610c46565b6102016004803603604081101561034d57600080fd5b506001600160a01b03813516906020013515156110ca565b610201611599565b61039b6004803603604081101561038357600080fd5b506001600160a01b038135169060200135151561159f565b6040805192835260208301919091528051918290030190f35b610402600480360360c08110156103ca57600080fd5b506001600160a01b038135811691602081013582169160408201358116916060810135821691608082013581169160a0013516611b0c565b005b610201611e25565b61039b6004803603602081101561042257600080fd5b50356001600160a01b0316611e2b565b6005546001600160a01b031681565b600e546001600160701b0380821692600160701b830490911691600160e01b900463ffffffff1690565b60115481565b60075481565b6006546001600160a01b031681565b60006010546001146104cc576040805162461bcd60e51b815260206004820152600a60248201526916940e881313d0d2d15160b21b604482015290519081900360640190fd5b600060105560115460011461051e576040805162461bcd60e51b815260206004820152601360248201527216940e881393d5081253925512505312569151606a1b604482015290519081900360640190fd5b610526612149565b6000600460009054906101000a90046001600160a01b03166001600160a01b031663017e7e586040518163ffffffff1660e01b815260040160206040518083038186803b15801561057657600080fd5b505afa15801561058a573d6000803e3d6000fd5b505050506040513d60208110156105a057600080fd5b505190506000836105bc576005546001600160a01b03166105c9565b6006546001600160a01b03165b90506000806105d6610441565b5060008054604080516370a0823160e01b815230600482015290519496509294509092839283926001600160a01b0316916370a0823191602480820192602092909190829003018186803b15801561062d57600080fd5b505afa158015610641573d6000803e3d6000fd5b505050506040513d602081101561065757600080fd5b5051600154604080516370a0823160e01b815230600482015290519293506000926001600160a01b03909216916370a0823191602480820192602092909190829003018186803b1580156106aa57600080fd5b505afa1580156106be573d6000803e3d6000fd5b505050506040513d60208110156106d457600080fd5b505190506106f1826001600160701b03881663ffffffff61256416565b935061070c816001600160701b03871663ffffffff61256416565b925060008061071d86868e8c6125c2565b91509150819a508b15610737576007805482019055610740565b60088054820190555b505050506000811180156107545750600082115b61078f5760405162461bcd60e51b8152600401808060200182810382526021815260200180613ea96021913960400191505060405180910390fd5b6000546002546107ac916001600160a01b039081169116846127be565b6001546002546107c9916001600160a01b039081169116836127be565b600254604080516335313c2160e11b815230600482015290516000926001600160a01b031691636a62784291602480830192602092919082900301818787803b15801561081557600080fd5b505af1158015610829573d6000803e3d6000fd5b505050506040513d602081101561083f57600080fd5b5051600a5490915060009060649061085e908b9063ffffffff61296a16565b8161086557fe5b04905061087281886129d6565b1561087d5780890398505b866001600160a01b03166340c10f198c8b6040518363ffffffff1660e01b815260040180836001600160a01b03166001600160a01b0316815260200182815260200192505050600060405180830381600087803b1580156108dd57600080fd5b505af11580156108f1573d6000803e3d6000fd5b5050604080513381526020810188905280820187905290517f9a36e9f82fd3ab4ec26a87598c0f7f4519b7895fa6a0bca1968b486ee019b08294509081900360600192509050a1610940612af5565b5050600160105550939695505050505050565b6000546001546001600160a01b03918216911682565b600a5481565b600c5481565b60006011546001146109c4576040805162461bcd60e51b815260206004820152601360248201527216940e881393d5081253925512505312569151606a1b604482015290519081900360640190fd5b601054600114610a08576040805162461bcd60e51b815260206004820152600a60248201526916940e881313d0d2d15160b21b604482015290519081900360640190fd5b6000601055610a15612149565b600080610a20610441565b5091509150600080610a33600080612bc1565b9150915060008615610b0257600154604080516370a0823160e01b815230600482015290516000926001600160a01b0316916370a08231916024808301926020929190829003018186803b158015610a8a57600080fd5b505afa158015610a9e573d6000803e3d6000fd5b505050506040513d6020811015610ab457600080fd5b50519050610ad1816001600160701b03871663ffffffff61256416565b600654909250610afa9083906001600160701b0388169086906001600160a01b03168d8d612c06565b965050610bc2565b60008054604080516370a0823160e01b815230600482015290516001600160a01b03909216916370a0823191602480820192602092909190829003018186803b158015610b4e57600080fd5b505afa158015610b62573d6000803e3d6000fd5b505050506040513d6020811015610b7857600080fd5b50519050610b95816001600160701b03881663ffffffff61256416565b600554909250610bbe9083906001600160701b0389169087906001600160a01b03168d8d612c06565b9650505b8615610bd5576007805482019055610bde565b60088054820190555b610be6612ecd565b505060016010555091949350505050565b600654600160a01b900460ff1681565b6003546001600160a01b031681565b600b5481565b6004546001600160a01b031681565b60085481565b60095481565b6002546001600160a01b031681565b6000601054600114610c8c576040805162461bcd60e51b815260206004820152600a60248201526916940e881313d0d2d15160b21b604482015290519081900360640190fd5b6000601055601154600114610cde576040805162461bcd60e51b815260206004820152601360248201527216940e881393d5081253925512505312569151606a1b604482015290519081900360640190fd5b610ce6612149565b600080610cf1610441565b509150915060008415610d9857600154604080516370a0823160e01b815230600482015290516000926001600160a01b0316916370a08231916024808301926020929190829003018186803b158015610d4957600080fd5b505afa158015610d5d573d6000803e3d6000fd5b505050506040513d6020811015610d7357600080fd5b50519050610d90816001600160701b03851663ffffffff61256416565b915050610e2f565b60008054604080516370a0823160e01b815230600482015290516001600160a01b03909216916370a0823191602480820192602092909190829003018186803b158015610de457600080fd5b505afa158015610df8573d6000803e3d6000fd5b505050506040513d6020811015610e0e57600080fd5b50519050610e2b816001600160701b03861663ffffffff61256416565b9150505b60008111610e84576040805162461bcd60e51b815260206004820152601760248201527f5a503a20494e53554646494349454e545f414d4f554e54000000000000000000604482015290519081900360640190fd5b610ebc85610e9d576000546001600160a01b0316610eaa565b6001546001600160a01b03165b6002546001600160a01b0316836127be565b600080610ec9838861318a565b91509150600080610efe84848b8c610eec576005546001600160a01b0316610ef9565b6006546001600160a01b03165b6125c2565b915091508197508815610f18576007805482019055610f21565b60088054820190555b6002546006546000916001600160a01b03169063432275e6903090600160a01b900460ff16610f50578c610f53565b8c155b6040518363ffffffff1660e01b815260040180836001600160a01b03166001600160a01b031681526020018215151515815260200192505050606060405180830381600087803b158015610fa657600080fd5b505af1158015610fba573d6000803e3d6000fd5b505050506040513d6060811015610fd057600080fd5b5051905089610fea576005546001600160a01b0316610ff7565b6006546001600160a01b03165b6001600160a01b03166340c10f198c8b6040518363ffffffff1660e01b815260040180836001600160a01b03166001600160a01b0316815260200182815260200192505050600060405180830381600087803b15801561105657600080fd5b505af115801561106a573d6000803e3d6000fd5b50505050505050505061107b612af5565b60408051338152602081018390528615158183015290517f1889e9c3cb9a926b5ab9da8b1f34e8883f1c84e43a61525a2551c32d779213279181900360600190a1505060016010555092915050565b6000601054600114611110576040805162461bcd60e51b815260206004820152600a60248201526916940e881313d0d2d15160b21b604482015290519081900360640190fd5b6000601055601154600114611162576040805162461bcd60e51b815260206004820152601360248201527216940e881393d5081253925512505312569151606a1b604482015290519081900360640190fd5b61116a612149565b600082611182576005546001600160a01b031661118f565b6006546001600160a01b03165b604080516370a0823160e01b815230600482015290519192506000916001600160a01b038416916370a08231916024808301926020929190829003018186803b1580156111db57600080fd5b505afa1580156111ef573d6000803e3d6000fd5b505050506040513d602081101561120557600080fd5b505190508061125b576040805162461bcd60e51b815260206004820152601660248201527f494e53554646494349454e545f4c495155494449545900000000000000000000604482015290519081900360640190fd5b6000826001600160a01b03166318160ddd6040518163ffffffff1660e01b815260040160206040518083038186803b15801561129657600080fd5b505afa1580156112aa573d6000803e3d6000fd5b505050506040513d60208110156112c057600080fd5b5051600254909150869086906001600160a01b03166000806112e3848789613207565b9150915061131484611300576000546001600160a01b031661130d565b6001546001600160a01b03165b86836127be565b8098508682101561147957670de0b6b3a7640000841561137b576000611338610441565b506001600160701b03169150506000611352600080612bc1565b9150611376905061136a82600263ffffffff61296a16565b83600b546007546132aa565b925050505b6000670de0b6b3a76400006113a68361139a8c8863ffffffff61256416565b9063ffffffff61296a16565b816113ad57fe5b0490506113c585866113c089858d6132e8565b6127be565b846001600160a01b0316632ce5109088600660149054906101000a900460ff166113ef57886113f2565b88155b6040518363ffffffff1660e01b815260040180836001600160a01b03166001600160a01b031681526020018215151515815260200192505050602060405180830381600087803b15801561144557600080fd5b505af1158015611459573d6000803e3d6000fd5b505050506040513d602081101561146f57600080fd5b50519a909a019950505b60408051632770a7eb60e21b81523060048201526024810189905290516001600160a01b038a1691639dc29fac91604480830192600092919082900301818387803b1580156114c757600080fd5b505af11580156114db573d6000803e3d6000fd5b50505050505050505084156115185760075481906114ff908463ffffffff61296a16565b8161150657fe5b60078054929091049091039055611542565b600854819061152d908463ffffffff61296a16565b8161153457fe5b600880549290910490910390555b61154a612ecd565b60408051338152602081018690528615158183015290517f5cf7281eb36e25a92ffd0cff3089777ca0cb41d28e8c7158c234b1eae9a07ed29181900360600190a1505060016010555092915050565b6103e881565b6000806010546001146115e6576040805162461bcd60e51b815260206004820152600a60248201526916940e881313d0d2d15160b21b604482015290519081900360640190fd5b6000601055601154600114611638576040805162461bcd60e51b815260206004820152601360248201527216940e881393d5081253925512505312569151606a1b604482015290519081900360640190fd5b611640612149565b600083611658576005546001600160a01b0316611665565b6006546001600160a01b03165b604080516370a0823160e01b815230600482015290519192506000916001600160a01b038416916370a08231916024808301926020929190829003018186803b1580156116b157600080fd5b505afa1580156116c5573d6000803e3d6000fd5b505050506040513d60208110156116db57600080fd5b505190508061171b5760405162461bcd60e51b8152600401808060200182810382526021815260200180613e886021913960400191505060405180910390fd5b6000826001600160a01b03166318160ddd6040518163ffffffff1660e01b815260040160206040518083038186803b15801561175657600080fd5b505afa15801561176a573d6000803e3d6000fd5b505050506040513d602081101561178057600080fd5b50519050670de0b6b3a7640000600080611798610441565b506001600160701b031691506001600160701b031691506000806117bd600080612bc1565b9150915060008b6118225761180385670de0b6b3a76400006117ef600b5461139a60028961296a90919063ffffffff16565b816117f657fe5b049063ffffffff61355016565b611813888763ffffffff61296a16565b8161181a57fe5b048703611840565b600754611835888663ffffffff61296a16565b8161183c57fe5b0487035b9050808810611896576040805162461bcd60e51b815260206004820152601d60248201527f5a503a204578636565646564204275726e204173796e63206c696d6974000000604482015290519081900360640190fd5b508a156118c0576118bd6118b182600263ffffffff61296a16565b84600b546007546132aa565b94505b505050506000670de0b6b3a76400006118e2838661296a90919063ffffffff16565b816118e957fe5b04905060006118f98983866132e8565b600254909150611913906001600160a01b031680836127be565b600254604080517f89afcb440000000000000000000000000000000000000000000000000000000081526001600160a01b038d81166004830152825160009485949216926389afcb4492602480830193919282900301818787803b15801561197a57600080fd5b505af115801561198e573d6000803e3d6000fd5b505050506040513d60408110156119a457600080fd5b5080516020909101516006549193509150600160a01b900460ff166119c957806119cb565b815b600654909a50600160a01b900460ff166119e557816119e7565b805b98508a15611a1d576007548690611a04908963ffffffff61296a16565b81611a0b57fe5b60078054929091049091039055611a47565b6008548690611a32908963ffffffff61296a16565b81611a3957fe5b600880549290910490910390555b60408051632770a7eb60e21b81523060048201526024810189905290516001600160a01b038a1691639dc29fac91604480830192600092919082900301818387803b158015611a9557600080fd5b505af1158015611aa9573d6000803e3d6000fd5b50505050611ab5612ecd565b60408051338152602081018c90528082018b905290517fb83dbb1f0386f1b6d6f534f325d617e3f96f2971cca29021702094328c1cb70c9181900360600190a1505050505050505060016010819055509250929050565b601054600114611b50576040805162461bcd60e51b815260206004820152600a60248201526916940e881313d0d2d15160b21b604482015290519081900360640190fd5b60006010556003546001600160a01b03163314611bb4576040805162461bcd60e51b815260206004820152601160248201527f5a6972636f6e3a20464f5242494444454e000000000000000000000000000000604482015290519081900360640190fd5b600580546001600160a01b0380891673ffffffffffffffffffffffffffffffffffffffff19928316179092556006805488841690831617905560028054858416921682179055604080517f0dfe1681000000000000000000000000000000000000000000000000000000008152905192871692630dfe168191600481810192602092909190829003018186803b158015611c4d57600080fd5b505afa158015611c61573d6000803e3d6000fd5b505050506040513d6020811015611c7757600080fd5b5051600680547fffffffffffffffffffffff00ffffffffffffffffffffffffffffffffffffffff166001600160a01b0392831693909314600160a01b029290921790915560408051808201825286831680825286841660209283018190526000805473ffffffffffffffffffffffffffffffffffffffff19908116909317905560018054831690911790556004805490911685851617815560035483517fa3ad52b8000000000000000000000000000000000000000000000000000000008152935194169363a3ad52b893808301939290829003018186803b158015611d5c57600080fd5b505afa158015611d70573d6000803e3d6000fd5b505050506040513d6020811015611d8657600080fd5b5051600955600354604080517f79186af000000000000000000000000000000000000000000000000000000000815290516001600160a01b03909216916379186af091600480820192602092909190829003018186803b158015611de957600080fd5b505afa158015611dfd573d6000803e3d6000fd5b505050506040513d6020811015611e1357600080fd5b5051600a555050600160105550505050565b600d5481565b600080601054600114611e72576040805162461bcd60e51b815260206004820152600a60248201526916940e881313d0d2d15160b21b604482015290519081900360640190fd5b600060105560115415611ecc576040805162461bcd60e51b815260206004820152601360248201527f416c726561647920496e697469616c697a656400000000000000000000000000604482015290519081900360640190fd5b60008054604080516370a0823160e01b815230600482015290516001600160a01b03909216916370a0823191602480820192602092909190829003018186803b158015611f1857600080fd5b505afa158015611f2c573d6000803e3d6000fd5b505050506040513d6020811015611f4257600080fd5b5051600154604080516370a0823160e01b815230600482015290519293506000926001600160a01b03909216916370a0823191602480820192602092909190829003018186803b158015611f9557600080fd5b505afa158015611fa9573d6000803e3d6000fd5b505050506040513d6020811015611fbf57600080fd5b505190508115801590611fd25750600081115b612023576040805162461bcd60e51b815260206004820152601860248201527f5a503a204e6f7420656e6f756768206c69717569646974790000000000000000604482015290519081900360640190fd5b60008061202e6135a8565b6008869055600785905590925090506001600160701b0382161580159061205e57506000816001600160701b0316115b156120ca576000816001600160701b031661208d846001600160701b031660075461296a90919063ffffffff16565b8161209457fe5b0490506120ac8160085461355090919063ffffffff16565b600854670de0b6b3a764000002816120c057fe5b04600b55506120d7565b6706f05b59d3b20000600b555b6006546120ff9084906000906001600160701b038516906001600160a01b03168b6001612c06565b6005549095506121299085906000906001600160701b038616906001600160a01b03168b83612c06565b9550612133612ecd565b5050600160118190556010555091939092509050565b6002546001600160a01b031633146121c457600260009054906101000a90046001600160a01b03166001600160a01b03166311816b046040518163ffffffff1660e01b8152600401600060405180830381600087803b1580156121ab57600080fd5b505af11580156121bf573d6000803e3d6000fd5b505050505b6000806121cf6135a8565b915091506000806121de610441565b50909250905060006122026001600160701b0386811690861663ffffffff61296a16565b9050600d5460001415801561221f57506001600160701b03851615155b801561223357506001600160701b03841615155b1561255d57600254604080516318160ddd60e01b815290516000926001600160a01b0316916318160ddd916004808301926020929190829003018186803b15801561227d57600080fd5b505afa158015612291573d6000803e3d6000fd5b505050506040513d60208110156122a757600080fd5b5051905060006122d16122ca6001600160701b038816600263ffffffff61296a16565b6000613671565b905060006122f26122ca6001600160701b038a16600263ffffffff61296a16565b90506000670de0b6b3a764000090506000612340600d546123128861379e565b028661231f600c5461379e565b02670de0b6b3a7640000028161233157fe5b8491900463ffffffff61256416565b90506000670de0b6b3a764000061235d868463ffffffff61296a16565b8161236457fe5b0490506000670de0b6b3a7640000612382868563ffffffff61296a16565b8161238957fe5b0490506123cb6040518060400160405280601181526020017f73796e633a3a616e63686f723a3a666565000000000000000000000000000000815250836137f0565b61240a6040518060400160405280601081526020017f73796e633a3a666c6f61743a3a66656500000000000000000000000000000000815250826137f0565b670de0b6b3a7640000612432600b54670de0b6b3a7640000038461296a90919063ffffffff16565b8161243957fe5b60078054929091049091019055600b54670de0b6b3a76400009061245d908361296a565b8161246457fe5b600880549290910490910190556007546002870490612492906001600160701b038c1663ffffffff61256416565b10156124da5760075486906124b6906001600160701b038c1663ffffffff61256416565b670de0b6b3a764000002816124c757fe5b04670de0b6b3a764000003600b5561250e565b60085485906124f8906001600160701b038d1663ffffffff61256416565b670de0b6b3a7640000028161250957fe5b04600b555b600754600854600b5460408051938452602084019290925282820152517f54964c70825f65946c2e16cd62d98784e0536cf3d54b15ce1845f37f325945d29181900360600190a1505050505050505b5050505050565b808203828111156125bc576040805162461bcd60e51b815260206004820152601560248201527f64732d6d6174682d7375622d756e646572666c6f770000000000000000000000604482015290519081900360640190fd5b92915050565b6000806000806125d06135a8565b915091506000806125df610441565b509150915087156126d257612636846001600160701b0316612618600261139a876001600160701b03168f61296a90919063ffffffff16565b8161261f57fe5b046126318b600263ffffffff61296a16565b6138bb565b94506126cb8886896001600160a01b03166318160ddd6040518163ffffffff1660e01b815260040160206040518083038186803b15801561267657600080fd5b505afa15801561268a573d6000803e3d6000fd5b505050506040513d60208110156126a057600080fd5b50516126b66001600160701b0388166000613671565b856001600160701b0316600b546007546138d3565b95506127b1565b612719836001600160701b0316612700600261139a886001600160701b03168e61296a90919063ffffffff16565b8161270757fe5b046126318c600263ffffffff61296a16565b94506127ae8886896001600160a01b03166318160ddd6040518163ffffffff1660e01b815260040160206040518083038186803b15801561275957600080fd5b505afa15801561276d573d6000803e3d6000fd5b505050506040513d602081101561278357600080fd5b50516127996001600160701b0389166000613671565b866001600160701b0316600b546007546138d3565b95505b5050505094509492505050565b604080518082018252601981527f7472616e7366657228616464726573732c75696e74323536290000000000000060209182015281516001600160a01b0385811660248301526044808301869052845180840390910181526064909201845291810180516001600160e01b03167fa9059cbb000000000000000000000000000000000000000000000000000000001781529251815160009460609489169392918291908083835b602083106128845780518252601f199092019160209182019101612865565b6001836020036101000a0380198251168184511680821785525050505050509050019150506000604051808303816000865af19150503d80600081146128e6576040519150601f19603f3d011682016040523d82523d6000602084013e6128eb565b606091505b5091509150818015612919575080511580612919575080806020019051602081101561291657600080fd5b50515b61255d576040805162461bcd60e51b815260206004820152601d60248201527f5a6972636f6e2050796c6f6e3a205452414e534645525f4641494c4544000000604482015290519081900360640190fd5b60008115806129855750508082028282828161298257fe5b04145b6125bc576040805162461bcd60e51b815260206004820152601460248201527f64732d6d6174682d6d756c2d6f766572666c6f77000000000000000000000000604482015290519081900360640190fd5b60048054604080517f017e7e58000000000000000000000000000000000000000000000000000000008152905160009384936001600160a01b03169263017e7e589281830192602092829003018186803b158015612a3357600080fd5b505afa158015612a47573d6000803e3d6000fd5b505050506040513d6020811015612a5d57600080fd5b50516001600160a01b0381161580159350909150612aee57826001600160a01b03166340c10f1982866040518363ffffffff1660e01b815260040180836001600160a01b03166001600160a01b0316815260200182815260200192505050600060405180830381600087803b158015612ad557600080fd5b505af1158015612ae9573d6000803e3d6000fd5b505050505b5092915050565b600080612b006135a8565b91509150600260009054906101000a90046001600160a01b03166001600160a01b03166318160ddd6040518163ffffffff1660e01b815260040160206040518083038186803b158015612b5257600080fd5b505afa158015612b66573d6000803e3d6000fd5b505050506040513d6020811015612b7c57600080fd5b5051600d55612b9d6001600160701b0383811690831663ffffffff61296a16565b600c555050600e80546001600160e01b0316600160e01b4263ffffffff1602179055565b600080600080612bcf6135a8565b91509150612be6826001600160701b031687613671565b9350612bfb816001600160701b031686613671565b925050509250929050565b6000808711612c5c576040805162461bcd60e51b815260206004820152601860248201527f5a503a204e6f7420456e6f756768204c69717569646974790000000000000000604482015290519081900360640190fd5b6000846001600160a01b03166318160ddd6040518163ffffffff1660e01b815260040160206040518083038186803b158015612c9757600080fd5b505afa158015612cab573d6000803e3d6000fd5b505050506040513d6020811015612cc157600080fd5b5051600b546007549192509082612dbb57604080517f40c10f190000000000000000000000000000000000000000000000000000000081526000600482018190526103e8602483015291516001600160a01b038a16926340c10f19926044808201939182900301818387803b158015612d3957600080fd5b505af1158015612d4d573d6000803e3d6000fd5b505050508415612d7057612d698a6103e863ffffffff61256416565b9350612db6565b612db36103e8612d8784600263ffffffff61296a16565b612d9f8d670de0b6b3a764000063ffffffff61296a16565b81612da657fe5b049063ffffffff61256416565b93505b612dcd565b612dca858b858b8d87876138d3565b93505b505060006064612de8600a548561296a90919063ffffffff16565b81612def57fe5b049050612dfc81876129d6565b15612e075780830392505b856001600160a01b03166340c10f1986856040518363ffffffff1660e01b815260040180836001600160a01b03166001600160a01b0316815260200182815260200192505050600060405180830381600087803b158015612e6757600080fd5b505af1158015612e7b573d6000803e3d6000fd5b505060408051338152602081018d90528715158183015290517f19d363807bf5ba06f3320318d009a9851c28f799660016f386c9960478c46ea29350908190036060019150a150509695505050505050565b60008054604080516370a0823160e01b815230600482015290516001600160a01b03909216916370a0823191602480820192602092909190829003018186803b158015612f1957600080fd5b505afa158015612f2d573d6000803e3d6000fd5b505050506040513d6020811015612f4357600080fd5b5051600154604080516370a0823160e01b815230600482015290519293506000926001600160a01b03909216916370a0823191602480820192602092909190829003018186803b158015612f9657600080fd5b505afa158015612faa573d6000803e3d6000fd5b505050506040513d6020811015612fc057600080fd5b50519050600080612fd18484612bc1565b9150915060006064612fee6009548561296a90919063ffffffff16565b81612ff557fe5b049050600060646130116009548561296a90919063ffffffff16565b8161301857fe5b04905060026001600160701b038316046001600160701b031686118015613053575060026001600160701b038216046001600160701b031685115b1561316e576000806130a1868661308860026001600160701b0389165b8d916001600160701b0391041663ffffffff61256416565b61309c60026001600160701b038916613070565b613a08565b91509150816000146130ca576000546002546130ca916001600160a01b039081169116846127be565b80156130ed576001546002546130ed916001600160a01b039081169116836127be565b600254604080516335313c2160e11b815230600482015290516001600160a01b0390921691636a627842916024808201926020929091908290030181600087803b15801561313a57600080fd5b505af115801561314e573d6000803e3d6000fd5b505050506040513d602081101561316457600080fd5b5050960395909403935b61317a86868484613a63565b613182612af5565b505050505050565b6000806000806131986135a8565b9150915084156131c7576131c260028704826001600160701b0316846001600160701b0316613d24565b6131cc565b600286045b9350846131f8576131f360028704836001600160701b0316836001600160701b0316613d24565b612bfb565b60028604925050509250929050565b600b546007546000918291828061321e8180612bc1565b9150915060008061322d610441565b509150915060008b61323f5782613241565b815b6001600160701b0316905060008c613259578561326d565b600e54600160701b90046001600160701b03165b905061327e8d838e84868d8d6138d3565b99506132988d61328e8c8e6138bb565b8e84868d8d613e14565b98505050505050505050935093915050565b60006132bc828563ffffffff61256416565b6132d7670de0b6b3a76400008590038763ffffffff61296a16565b816132de57fe5b0495945050505050565b60008060006132f8600180612bc1565b91509150600080613307610441565b50915091506000881561341c5761332584600263ffffffff61296a16565b6007546133c890613345906001600160701b03861663ffffffff61256416565b600254604080516370a0823160e01b815230600482015290516001600160a01b03909216916370a0823191602480820192602092909190829003018186803b15801561339057600080fd5b505afa1580156133a4573d6000803e3d6000fd5b505050506040513d60208110156133ba57600080fd5b50519063ffffffff61296a16565b816133cf57fe5b0490506134156133e685600263ffffffff61296a16565b6133ff836001600160701b03861663ffffffff61296a16565b8161340657fe5b8391900463ffffffff61355016565b90506134ea565b600254604080516370a0823160e01b81523060048201529051670de0b6b3a7640000926134b0926001600160a01b03909116916370a0823191602480820192602092909190829003018186803b15801561347557600080fd5b505afa158015613489573d6000803e3d6000fd5b505050506040513d602081101561349f57600080fd5b5051600b549063ffffffff61296a16565b816134b757fe5b0490506134e76134ce86600263ffffffff61296a16565b6133ff836001600160701b03871663ffffffff61296a16565b90505b866134fb898363ffffffff61296a16565b8161350257fe5b049550600086116135445760405162461bcd60e51b8152600401808060200182810382526021815260200180613ef26021913960400191505060405180910390fd5b50505050509392505050565b808201828110156125bc576040805162461bcd60e51b815260206004820152601460248201527f64732d6d6174682d6164642d6f766572666c6f77000000000000000000000000604482015290519081900360640190fd5b600080600080600260009054906101000a90046001600160a01b03166001600160a01b0316630902f1ac6040518163ffffffff1660e01b815260040160606040518083038186803b1580156135fc57600080fd5b505afa158015613610573d6000803e3d6000fd5b505050506040513d606081101561362657600080fd5b5080516020909101516006549193509150600160a01b900460ff1661364b578061364d565b815b600654909450600160a01b900460ff166136675781613669565b805b925050509091565b600254604080516370a0823160e01b8152306004820152905160009283926001600160a01b03909116916370a0823191602480820192602092909190829003018186803b1580156136c157600080fd5b505afa1580156136d5573d6000803e3d6000fd5b505050506040513d60208110156136eb57600080fd5b5051600254604080516318160ddd60e01b815290519293506000926001600160a01b03909216916318160ddd91600480820192602092909190829003018186803b15801561373857600080fd5b505afa15801561374c573d6000803e3d6000fd5b505050506040513d602081101561376257600080fd5b50519050801580613771575081155b6137935780613786868463ffffffff61296a16565b8161378d57fe5b04613795565b835b95945050505050565b600060038211156137e1575080600160028204015b818110156137db578091506002818285816137ca57fe5b0401816137d357fe5b0490506137b3565b506137eb565b81156137eb575060015b919050565b6138b782826040516024018080602001838152602001828103825284818151815260200191508051906020019080838360005b8381101561383b578181015183820152602001613823565b50505050905090810190601f1680156138685780820380516001836020036101000a031916815260200191505b5060408051601f198184030181529190526020810180516001600160e01b03167f9710a9d0000000000000000000000000000000000000000000000000000000001790529350613e6692505050565b5050565b60008183106138ca57816138cc565b825b9392505050565b600087156138fb57816138ec888863ffffffff61296a16565b816138f357fe5b0490506139fd565b600061390d888863ffffffff61296a16565b90506000670de0b6b3a764000061392f600261139a8a8963ffffffff61296a16565b8161393657fe5b049050600061394b878363ffffffff61355016565b905061396f604051806060016040528060228152602001613f1360229139886137f0565b6139ae6040518060400160405280601d81526020017f63616c63756c6174655054553a3a666c6f61743a3a5f72657365727665000000815250896137f0565b6139ed6040518060400160405280602081526020017f63616c63756c6174655054553a3a666c6f61743a3a64656e6f6d696e61746f72815250826137f0565b8083816139f657fe5b0493505050505b979650505050505050565b6000808085613a1d888663ffffffff61296a16565b81613a2457fe5b04905084811115613a525784925086613a43848863ffffffff61296a16565b81613a4a57fe5b049150613a59565b8092508391505b5094509492505050565b83826001600160701b03161015613b6657600054600254613ab2916001600160a01b039081169116613aa4876001600160701b03871663ffffffff61256416565b6001600160701b03166127be565b600254600654604080516321913af360e11b8152306004820152600160a01b90920460ff1615156024830152516001600160a01b039092169163432275e6916044808201926060929091908290030181600087803b158015613b1357600080fd5b505af1158015613b27573d6000803e3d6000fd5b505050506040513d6060811015613b3d57600080fd5b5050600e80546dffffffffffffffffffffffffffff19166001600160701b038416179055613b89565b600e80546dffffffffffffffffffffffffffff19166001600160701b0386161790555b82816001600160701b03161015613c9457600154600254613bca916001600160a01b039081169116613aa4866001600160701b03861663ffffffff61256416565b600254600654604080516321913af360e11b8152306004820152600160a01b90920460ff16156024830152516001600160a01b039092169163432275e6916044808201926060929091908290030181600087803b158015613c2a57600080fd5b505af1158015613c3e573d6000803e3d6000fd5b505050506040513d6060811015613c5457600080fd5b5050600e80547fffffffff0000000000000000000000000000ffffffffffffffffffffffffffff16600160701b6001600160701b03841602179055613cce565b600e80547fffffffff0000000000000000000000000000ffffffffffffffffffffffffffff16600160701b6001600160701b038616021790555b600e54604080516001600160701b038084168252600160701b909304909216602083015280517f1d96001f313f6446e46c7776b79d231589555627a46fa2388f3220937fc79e519281900390910190a150505050565b6000808411613d645760405162461bcd60e51b815260040180806020018281038252602b815260200180613f35602b913960400191505060405180910390fd5b600083118015613d745750600082115b613daf5760405162461bcd60e51b8152600401808060200182810382526028815260200180613eca6028913960400191505060405180910390fd5b6000613dc3856103e563ffffffff61296a16565b90506000613dd7828563ffffffff61296a16565b90506000613dfd83613df1886103e863ffffffff61296a16565b9063ffffffff61355016565b9050808281613e0857fe5b04979650505050505050565b60008715613e2d57856138ec838963ffffffff61296a16565b85613e528861139a87670de0b6b3a76400006117ef6002848d8c63ffffffff61296a16565b81613e5957fe5b0498975050505050505050565b80516a636f6e736f6c652e6c6f67602083016000808483855afa505050505056fe5a503a204e6f7420656e6f756768206c697175696469747920696e7365727465645a6972636f6e50796c6f6e3a204e6f7420456e6f756768204c6971756964697479556e697377617056324c6962726172793a20494e53554646494349454e545f4c49515549444954595a503a20494e53554646494349454e545f4c49515549444954595f4255524e454463616c63756c6174655054553a3a666c6f61743a3a5f7265736572766550796c6f6e556e697377617056324c6962726172793a20494e53554646494349454e545f494e5055545f414d4f554e54a265627a7a723158200cad5736f168a267ce2effe3e12e85f87ac6a4d6861e3c793ea30c503bdc8ac964736f6c63430005100032",
  "linkReferences": {},
  "deployedLinkReferences": {}
}